:100000000C9434000C9451000C9451000C94510049
:100010000C9451000C9451000C9451000C946B0FF3
:100020000C9451000C9451000C9451000C94050F49
:100030000C9451000C9451000C94E10E0C9451005E
:100040000C9451000C9451000C9451000C945100EC
:100050000C9451000C9451000C9451000C945100DC
:100060000C9451000C94510011241FBECFEFD8E026
:10007000DEBFCDBF11E0A0E0B1E0E0E2F2E202C0FD
:1000800005900D92A831B107D9F723E0A8E1B1E0BE
:1000900001C01D92A630B207E1F70E94B90F0C947F
:1000A0000E110C94000084B1846084B985B1846021
:1000B00085B984B1886084B984B1806284B98CB513
:1000C00080618CBD8CB580648CBD08958EBD0DB4EF
:1000D00007FEFDCF0895CF9385B18B7F85B9C0E032
:1000E00007C08EE00E94660087E00E946600CF5F36
:1000F000C330B8F385B1846085B985B18B7F85B98C
:10010000C0E007C08BE00E94660087E00E946600A6
:10011000CF5FC330B8F385B1846085B985B18B7F7B
:1001200085B9C0E007C08CE00E94660081E00E94B3
:100130006600CF5FC330B8F385B1846085B985B1FF
:100140008B7F85B9C0E007C08FE00E94660080E029
:100150000E946600CF5FC330B8F385B1846085B973
:10016000CF910895CF93DF93D1E012C085B18B7FFB
:1001700085B9C0E007C08D2F0E94660080E00E9414
:100180006600CF5FC330B8F385B1846085B9DF5FA7
:10019000D93060F3DF91CF9108958AB1807F8AB919
:1001A0008BB18F608BB98FEF97E70197F1F700C0A4
:1001B0000000089560E070E02FC0FB01EE0FFF1F0C
:1001C000CF01880F991F880F991F880F991FE80F7B
:1001D000F91FE555FE4FE20FF31F5081CB018295C9
:1001E0009295907F9827807F9827FC01E95DFE4FCC
:1001F000E20FF31F4081452B8A579D4FFC01E20F10
:10020000F31F40832F5F3F4F02C020E030E02031DA
:1002100031059CF26F5F7F4F68307105B4F308952C
:1002200040E050E02BC0F901EE0FFF1FCF01880F17
:10023000991F880F991F880F991FE80FF91FE5551F
:10024000FE4FE40FF51F8081882371F0F901E295DC
:10025000F295F07FFE27E07FFE27E95DFE4FE40F79
:10026000F51F8081811132C02F5F3F4F02C020E017
:1002700030E027303105BCF24F5F5F4F4031510510
:10028000B4F340E150E01DC0F901EE0FFF1FCF01B4
:10029000880F991F880F991F880F991FE80FF91F62
:1002A000E555FE4FE40FF51F8081811111C02F5FCE
:1002B0003F4F02C020E030E0273031052CF34F5F84
:1002C0005F4F42315105B4F381E0089580E0089515
:1002D00080E008954FE050E030C0F901EE0FFF1FBD
:1002E000CF01880F991F880F991F880F991FE80F5A
:1002F000F91FE555FE4FE40FF51F8081882399F023
:100300004F305105F1F0F901E295F295F07FFE27AB
:10031000E07FFE27E95DFE4FCA010196E80FF91F55
:100320008081811110C02F5F3F4F02C020E030E07C
:100330002830310594F2415051095523BCF781E032
:10034000089580E0089580E008954FE050E03CC0BB
:10035000F901EE0FFF1FCF01880F991F880F991F1A
:10036000880F991FE80FF91FE555FE4FE40FF51FA1
:1003700080818823F9F02230310550F1F90131975D
:10038000E295F295F07FFE27E07FFE27E95DFE4FC4
:10039000E40FF51F9081F9013297E295F295F07F15
:1003A000FE27E07FFE27E95DFE4FE40FF51F808109
:1003B000892B81F42F5F3F4F02C020E030E02830CE
:1003C000310534F2415051095523BCF781E00895BD
:1003D00080E0089580E008954FE050E04BC0F901BF
:1003E000EE0FFF1FCF01880F991F880F991F880FED
:1003F000991FE80FF91FE555FE4FE40FF51F8081A7
:10040000882369F123303105C8F1F9013197E2956C
:10041000F295F07FFE27E07FFE27E95DFE4FE40FB7
:10042000F51F9081F9013297E295F295F07FFE2752
:10043000E07FFE27E95DFE4FE40FF51F8081892BE9
:10044000F9013397E295F295F07FFE27E07FFE27D2
:10045000E95DFE4FE40FF51F9081892B89F42F5F32
:100460003F4F02C020E030E0283031050CF4B7CF18
:10047000415051095523B4F781E0089580E0089573
:1004800080E008954FE050E02FC0F901EE0FFF1F0C
:10049000CF01880F991F880F991F880F991FE80FA8
:1004A000F91FE555FE4FE40FF51F8081882391F079
:1004B00021153105E9F0F9013197E295F295F07FC8
:1004C000FE27E07FFE27E95DFE4FE40FF51F8081E8
:1004D000811110C02F5F3F4F02C020E030E0283074
:1004E00031059CF2415051095523BCF781E0089534
:1004F00080E0089580E00895CF930E944202C82FC3
:1005000081112FC040C0FA013196EE0FFF1FCF01BD
:10051000880F991F880F991F880F991FE80FF91FDF
:10052000E555FE4FE20FF31F6081FA01EE0FFF1F4A
:10053000CF01880F991F880F991F880F991FE80F07
:10054000F91FE555FE4FE20FF31F60832F5F3F4F0A
:1005500002C020E030E020313105ACF24F5F5F4F48
:1005600002C040E050E0473051059CF380E090E04D
:1005700005C0FC01E75DFD4F1082019680319105B9
:10058000C4F30E94DA008C2FCF9108954FE050E021
:100590002FC0F901EE0FFF1FCF01880F991F880FA1
:1005A000991F880F991FE80FF91FE555FE4FE40FBB
:1005B000F51F8081882391F027303105E9F0F9019A
:1005C0003196E295F295F07FFE27E07FFE27E95D08
:1005D000FE4FE40FF51F8081811110C02F5F3F4F48
:1005E00002C020E030E0283031059CF24150510932
:1005F0005523BCF781E0089580E0089580E00895D8
:10060000CF930E94C602C82F81112FC040C0FA01AB
:100610003197EE0FFF1FCF01880F991F880F991F89
:10062000880F991FE80FF91FE555FE4FE20FF31FE2
:100630006081FA01EE0FFF1FCF01880F991F880F0D
:10064000991F880F991FE80FF91FE555FE4FE20F1C
:10065000F31F60832F5F3F4F02C020E030E0203166
:100660003105ACF24150510902C047E050E0141688
:1006700015069CF380E090E005C0FC01E555FE4FB7
:100680001082019680319105C4F30E94DA008C2F0C
:10069000CF9108954FE050E04CC0F901EE0FFF1FDD
:1006A000CF01880F991F880F991F880F991FE80F96
:1006B000F91FE555FE4FE40FF51F8081882371F186
:1006C000C90105970397C8F1F9013196E295F295B2
:1006D000F07FFE27E07FFE27E95DFE4FE40FF51F68
:1006E0009081F9013296E295F295F07FFE27E07F46
:1006F000FE27E95DFE4FE40FF51F8081892BF9018C
:100700003396E295F295F07FFE27E07FFE27E95DC4
:10071000FE4FE40FF51F9081892B89F42F5F3F4F27
:1007200002C020E030E0283031050CF4B6CF415053
:1007300051095523B4F781E0089580E0089580E0E1
:1007400008954FE050E03DC0F901EE0FFF1FCF01CB
:10075000880F991F880F991F880F991FE80FF91F9D
:10076000E555FE4FE40FF51F8081882301F1C90193
:100770000697029750F1F9013196E295F295F07FD4
:10078000FE27E07FFE27E95DFE4FE40FF51F908115
:10079000F9013296E295F295F07FFE27E07FFE2781
:1007A000E95DFE4FE40FF51F8081892B81F42F5FF7
:1007B0003F4F02C020E030E0283031052CF241509C
:1007C00051095523BCF781E0089580E0089580E049
:1007D00008950F931F93CF93DF93082F162F85B1A2
:1007E0008B7F85B9C1E0D0E007C0802F0E946600F2
:1007F000812F0E9466002196C730D105B4F385B1E0
:10080000846085B9DF91CF911F910F910895609118
:1008100014018AE00E94E90360E080E00E94E9039D
:100820000895FF920F931F93CF93DF93182FF62E07
:10083000042F85B18B7F85B9C3E0D0E040C0123072
:10084000A1F480E00E94660080E00E94660081E0E2
:100850008F0D0E946600802F0E94660080E00E943B
:10086000660080E00E94660029C01130A1F480E09B
:100870000E94660080E00E94660080E00E946600A0
:1008800080E00E94660081E08F0D0E946600802F4C
:100890000E94660013C081E08F0D0E946600802FC9
:1008A0000E94660080E00E94660080E00E94660070
:1008B00080E00E94660080E00E94660021971C167E
:1008C0001D060CF4BCCF85B1846085B9DF91CF9152
:1008D0001F910F91FF90089520E43FE140E050E028
:1008E0000E943B10E1E8F0E080818A608083BB27B2
:1008F000A52F942F832F8093890020938800EFE603
:10090000F0E08081826080830895F89421E009C03E
:1009100060913D0270913E0280913F0290914002B1
:1009200020E02111F5CF789408950F931F930E9432
:10093000850400911B0110911C0120911D01309133
:100940001E01601771078207930718F480E090E09A
:1009500039C039B131703093130129B12695217016
:100960002093120199B192FB992790F9909311016C
:1009700089B183FB882780F98093100140910F0192
:10098000341718F441E04093260140910E012417DA
:1009900018F441E04093250140910D01941718F49B
:1009A00041E04093240140910C01841718F441E088
:1009B0004093230130930F0120930E0190930D017A
:1009C00080930C011F910F910895CF92DF92EF92C7
:1009D000FF920F931F93CF93DF9340913B024330DD
:1009E00009F483C667E070E01DC0FB01EE0FFF1F36
:1009F000CF01880F991F880F991F880F991FE80F43
:100A0000F91FE555FE4FE20FF31F808181118B0125
:100A10002F5F3F4F02C020E030E0203131052CF342
:100A2000615071097723BCF76FE070E01DC0F901D8
:100A3000EE0FFF1FCF01880F991F880F991F880F96
:100A4000991FE80FF91FE555FE4FE60FF71F80814C
:100A50008111EB012F5F3F4F02C020E030E02830D2
:100A600031052CF3615071097723BCF74111F0C0B7
:100A700080913C02811193C00E94420281110DC0FD
:100A80000E944A03882309F430C60E940003882389
:100A900009F42BC60F5F1F4F26C00E94C6028111AA
:100AA00012C00E94EC01882309F41FC60E947C0238
:100AB000882309F41AC60E947C02882309F415C60B
:100AC0000250110910C00E94A10381110CC00E94A4
:100AD000A501882309F409C60E947C02882309F431
:100AE00004C6015011099801220F331FC901880F54
:100AF000991F880F991F880F991F820F931F855583
:100B00009E4FFC01EC0FFD1F1082FE013296E80F94
:100B1000F91F10829E012D5F3F4FFC01E20FF31F72
:100B20001082F8013197EE0FFF1FCF01880F991F38
:100B3000880F991F880F991FE80FF91FE555FE4F81
:100B400022503109E20FF31F41E04083F801319652
:100B5000EE0FFF1FCF01880F991F880F991F880F75
:100B6000991FE80FF91FE555FE4FE20FF31F408371
:100B7000C8010296BC01660F771FCB01880F991F31
:100B8000880F991F880F991F860F971F85559E4FB5
:100B9000FC01E20FF31F408340933C0259C0F8016F
:100BA000EE0FFF1FCF01880F991F880F991F880F25
:100BB000991FE80FF91FE555FE4FEC0FFD1F10823E
:100BC000F8013296EE0FFF1FCF01880F991F880F93
:100BD000991F880F991FE80FF91FE555FE4FEC0F7D
:100BE000FD1F1082F8013396EE0FFF1FCF01880F13
:100BF000991F880F991F880F991FE80FF91FE55556
:100C0000FE4FEC0FFD1F1082C80101969C01220FC0
:100C1000331FC901880F991F880F991F880F991FCB
:100C2000820F931F85559E4FFE013197E80FF91FE4
:100C300041E04083FE013196E80FF91F40839E0199
:100C40002E5F3F4FFC01E20FF31F408310923C02E6
:100C500078018FEFE81AF80A6E019FEFC91AD90AD6
:100C600080913B02813009F04AC180913C028111A0
:100C700048C09801220F331FC901880F991F880FA0
:100C8000991F880F991F820F931F85559E4FFC0156
:100C9000EC0FFD1F1082FC01EC0DFD1D1082C80140
:100CA0000296880F991F9C01220F331F220F331FBA
:100CB000220F331F820F931F85559E4FFC01EC0DB1
:100CC000FD1D1082A701440F551F9A01220F331FEB
:100CD000220F331F220F331F240F351F25553E4F80
:100CE000F901EC0FFD1F41E04083FC01EC0FFD1FFB
:100CF00040832296F901EC0FFD1F408340933C0294
:100D0000FEC0813009F058C00E944202811109C022
:100D10000E940003882309F4E8C4780182E0E80E09
:100D2000F11CA701415051099A01220F331FC9013B
:100D3000880F991F880F991F880F991F820F931F83
:100D400085559E4FFC01EC0FFD1F1082B701660F09
:100D5000771F9B01220F331F220F331F220F331FD8
:100D6000260F371F25553E4FF901EC0FFD1F10824E
:100D70002296FC01EC0FFD1F1082F7013297EE0F57
:100D8000FF1FCF01880F991F880F991F880F991F88
:100D9000E80FF91FE555FE4FEC0DFD1D81E0808346
:100DA000F901EC0DFD1D8083C20FD31F888382E003
:100DB00080933C027A01A3C0823009F04CC09801B4
:100DC000220F331FC901880F991F880F991F880FA1
:100DD000991F820F931F85559E4FFC01EC0FFD1F3D
:100DE000108298012E5F3F4FA901440F551F9A01B1
:100DF000220F331F220F331F220F331F240F351FE3
:100E000025553E4FF901EC0FFD1F1082F901EC0D45
:100E1000FD1D1082FE013197A701440F551F9A0155
:100E2000220F331F220F331F220F331F240F351FB2
:100E300025553E4FE20FF31F41E04083F901EC0DD1
:100E4000FD1D4083FC01EC0DFD1D408383E080937C
:100E50003C026E0154C00E94C602811105C00E946E
:100E60007C02811102C041C487019801220F331F07
:100E7000C901880F991F880F991F880F991F820F2A
:100E8000931F85559E4FFC01EC0FFD1F10829E01A4
:100E90002E5F3F4FFC01E20FF31F1082C801019744
:100EA000AC01440F551FCA01880F991F880F991F65
:100EB000880F991F840F951F85559E4FFC01E20FE7
:100EC000F31F1082C80FD91F21E02883FC01EC0D0D
:100ED000FD1D2083F8013196EE0FFF1FCF01880F13
:100EE000991F880F991F880F991FE80FF91FE55563
:100EF000FE4FEC0DFD1D208310923C027801809185
:100F00003B02823009F05BC180913C0281114DC0EF
:100F1000C7010196880F991F9C01220F331F220FD2
:100F2000331F220F331F820F931F85559E4FA6013B
:100F300041505109FC01E40FF51F1082F701319770
:100F4000EE0FFF1F9F01220F331F220F331F220FAF
:100F5000331FE20FF31FE555FE4FEC0DFD1D108210
:100F6000FC01EC0DFD1D1082B701660F771F9B0180
:100F7000220F331F220F331F220F331F260F371F5D
:100F800025553E4FF901E40FF51F51E05083B6019E
:100F90006F5F7F4FFC01E60FF71F5083F901E60FEB
:100FA000F71F508350933C020AC1813009F05DC0A5
:100FB0000E944202811108C00E940003882309F4A4
:100FC00094C39FEFE91AF90A970121503109A90149
:100FD000440F551FCA01880F991F880F991F880F4A
:100FE000991F840F951F85559E4FF6013197E80F85
:100FF000F91F1082B701660F771FAB01440F551F11
:10100000440F551F440F551F460F571F45555E4F40
:10101000B6016F5F7F4FFA01E60FF71F1082FC01E8
:10102000E60FF71F1082C7010297FC01EE0FFF1FAA
:10103000CF01880F991F880F991F880F991F8E0F56
:101040009F1F85559E4FDC01AC0DBD1DE1E0EC936B
:10105000DA01AC0DBD1DEC93DC01A60FB71FEC93BC
:1010600082E080933C027901AAC0823009F04EC030
:10107000A60141505109C7010197880F991F9C0192
:10108000220F331F220F331F220F331F820F931F94
:101090009C0125553E4FF901E40FF51F1082F70121
:1010A0003196EE0FFF1FCF01880F991F880F991FF0
:1010B000880F991FE80FF91FE555FE4FE40FF51F44
:1010C0001082F901EC0DFD1D1082F6013297B70177
:1010D000660F771FCB01880F991F880F991F880F04
:1010E000991F860F971F85559E4FDC01AE0FBF1FBE
:1010F00061E06C93DC01AC0DBD1D6C93E20FF31F3E
:10110000608383E080933C026A0159C00E94C6025A
:10111000811108C00E947C02882309F4E6C281E0A4
:10112000E81AF1089701220F331FC901880F991F90
:10113000880F991F880F991F820F931F85559E4F07
:10114000F6013197DC01AE0FBF1F1C9296012F5F95
:101150003F4FDC01A20FB31F1C92C7010197880FFC
:10116000991F9C01220F331F220F331F220F331FA1
:10117000820F931F9C0125553E4FD901AE0FBF1F13
:101180001C92C7010196AC01440F551FCA01880F7C
:10119000991F880F991F880F991F840F951F8555D8
:1011A0009E4FE80FF91F41E04083F901EC0DFD1D52
:1011B0004083FC01EC0DFD1D408310923C028091A8
:1011C0003B02843009F07AC080913C02811135C025
:1011D000C7010196880F991F9C01220F331F220F10
:1011E000331F220F331F820F931F85559E4FF60129
:1011F0003197E80FF91F1082F7013197EE0FFF1FAB
:101200009F01220F331F220F331F220F331FE20FC4
:10121000F31FE555FE4FEC0DFD1D1082FC01EC0D9A
:10122000FD1D21E02083A6014F5F5F4FFC01E40F0D
:10123000F51F208320933C0241C00E94420281118D
:1012400008C00E940003882309F44FC29FEFE91AE7
:10125000F90A9701220F331FC901880F991F880FC0
:10126000991F880F991F280F391F25553E4FF901E7
:10127000EC0DFD1D1082F6013196E20FF31F108276
:10128000F7013297EE0FFF1FCF01880F991F880FCC
:10129000991F880F991FE80FF91FE555FE4FEC0DB8
:1012A000FD1D41E04083C6010197F901E80FF91FD8
:1012B000408310923C02C70101977C0180913B0260
:1012C000853009F02DC180913C02811142C0970107
:1012D000220F331FC901880F991F880F991F880F8C
:1012E000991F280F391F25553E4FD6011197A20F80
:1012F000B31FF7013197EE0FFF1FCF01880F991F22
:10130000880F991F880F991FE80FF91FE555FE4FA9
:10131000EC0DFD1D1082F7013196EE0FFF1FCF017E
:10132000880F991F880F991F880F991FE80FF91FC1
:10133000E555FE4FEC0DFD1D81E08C938083A601E9
:101340004F5F5F4FF901E40FF51F808380933C02EC
:10135000E7C0813009F051C00E944202811108C0EB
:101360000E940003882309F4C0C19FEFE91AF90A1B
:10137000970121503109A901440F551FCA01880F57
:10138000991F880F991F880F991F840F951FAC0113
:1013900045555E4FF6013197E40FF51F1082F701B6
:1013A000EE0FFF1FCF01880F991F880F991F880F1D
:1013B000991FE80FF91FE555FE4FEC0DFD1DE601E5
:1013C0002196C40FD51FD7011297AA0FBB1FCD01BD
:1013D000880F991F880F991F880F991FA80FB91F91
:1013E000A555BE4FAC0DBD1D81E08C9380838883D5
:1013F00082E080933C02790193C0823009F044C0BE
:10140000960121503109F7013197EE0FFF1FCF01EF
:10141000880F991F880F991F880F991FE80FF91FD0
:10142000E555FE4FE20FF31FD7011196AA0FBB1F20
:10143000CD01880F991F880F991F880F991FA80F3A
:10144000B91FA555BE4FA20FB31F1C92A701440F91
:10145000551FCA01880F991F880F991F880F991F60
:10146000840F951F85559E4FEC01CC0DDD1DD601D7
:101470001297A80FB91F91E09C939083988383E003
:1014800080933C0269014CC00E94C602811108C0D1
:101490000E947C02882309F428C181E0E81AF1083F
:1014A0009701220F331FC901880F991F880F991FB9
:1014B000880F991F280F391F25553E4FD6011197C8
:1014C000A20FB31FF7013197EE0FFF1FCF01880F57
:1014D000991F880F991F880F991FE80FF91FE5556D
:1014E000FE4FEC0DFD1DC6010196E901C80FD91F85
:1014F000188221E02C932083F7013196EE0FFF1F15
:10150000CF01880F991F880F991F880F991FE80F27
:10151000F91FE555FE4FEC0DFD1D208310923C0296
:1015200080913B02863009F0DAC080913C02811143
:1015300046C0F7013197960121503109EE0FFF1F88
:10154000CF01880F991F880F991F880F991FE80FE7
:10155000F91FE555FE4FE20FF31F1082B701660F2A
:10156000771FCB01880F991F880F991F880F991F2C
:10157000680F791F65557E4FFB01E20FF31F108244
:10158000C7010196AC01440F551FCA01880F991F6E
:10159000880F991F880F991F840F951F85559E4F9F
:1015A000FC01E20FF31F81E080839FEFC91AD90A83
:1015B000FB01EC0DFD1D808380933C0290C00E94D6
:1015C0004202811108C00E940003882309F48DC0E3
:1015D0008FEFE81AF80AA7014150510996012150EE
:1015E0003109F701EE0FFF1FCF01880F991F880FF8
:1015F000991F880F991FE80FF91FE555FE4FE20F5D
:10160000F31F1082F6013196CA01880F991FAC01B1
:10161000440F551F440F551F440F551F840F951F2E
:10162000AC0145555E4FE40FF51F1082C7010297CC
:10163000880F991FFC01EE0FFF1FEE0FFF1FEE0F2B
:10164000FF1FE80FF91FE555FE4FE20FF31F81E082
:101650008083FA01E20FF31F808310923C023FC0A7
:10166000A901440F551FCA01880F991F880F991FA0
:10167000880F991F840F951F85559E4FFB0131964A
:10168000E80FF91F4081FC01E60FF71F40832F5F31
:101690003F4F02C020E030E0283031050CF36F5F8F
:1016A0007F4F02C060E070E0623171059CF30E94E0
:1016B00085040091060110910701012E000C220BF8
:1016C000330BDC01CB01800F911FA21FB31F80934E
:1016D0001F0190932001A0932101B09322010E9449
:1016E00010018823F9F20E94DA00DF91CF911F9157
:1016F0000F91FF90EF90DF90CF90089581E080935D
:101700001A010E9485046093820270938302809381
:101710008402909385020E94950490912601809105
:101720002501892B90912401892B90912301892BEC
:1017300091F310921A012FE030E015C0FC01E29500
:10174000F295F07FFE27E07FFE27E95DFE4FE20F76
:10175000F31F1082019602C080E090E0883091056E
:101760006CF3215031093323BCF7109226011092FB
:101770002501109224011092230181E090E09093C2
:101780000501809304010895CF93DF93CFE0D0E06B
:1017900069C0FC01E295F295F07FFE27E07FFE270D
:1017A000E95DFE4FEC0FFD1F2081222311F04F5FFA
:1017B0005F4F019604C040E050E080E090E0883048
:1017C00091053CF34830510509F04BC00EC0FC01B7
:1017D000E295F295F07FFE27E07FFE27E95DFE4F60
:1017E000EC0FFD1F1082019602C080E090E088306F
:1017F00091056CF30E94DA00AE011CC0C90182950C
:101800009295907F9827807F9827895D9E4FFA0157
:101810003197E80FF91F6081FC01E40FF51F608329
:101820002F5F3F4F02C020E030E02830310534F315
:101830004150510914161506B4F380E090E00BC036
:10184000FC01E295F295F07FFE27E07FFE27E95D3F
:10185000FE4F108201968830910594F30E94DA00C1
:1018600021962197DD230CF0A6CFC0E0D0E00EC07A
:10187000FE01E295F295F07FFE27E07FFE27E95D0D
:10188000FE4F808181110E947E0B2196C830D105C8
:101890007CF381E090E09093050180930401DF9157
:1018A000CF910895CF93DF930E94C40B80910401E0
:1018B00090910501019789F40E94BD10C6E0D0E027
:1018C000BE010E94271080933B020E94BD10BE0102
:1018D0000E942710809381020CC080918102809326
:1018E0003B020E94BD1066E070E00E9427108093CA
:1018F000810280913B02811107C0EBEAF1E091E0A7
:1019000096AB97AB90AF91AF813041F4EBEAF1E049
:1019100091E094A395A397AB9093F401823049F49E
:10192000EBEAF1E091E09093F30195A397AB9093EC
:10193000F401833049F4EBEAF1E091E096AB97AB28
:101940009093F3019093F401843049F491E09093E3
:10195000F301909305029093E2019093F401853096
:1019600049F491E09093F3019093E2019093F40194
:1019700090930602863049F481E08093E1018093E0
:10198000F3018093F4018093060210923C0280914F
:101990008102811107C0E1E4F2E091E090AF91AFE4
:1019A00092AF93AF813039F4E1E4F2E091E090AF8F
:1019B00091AF92AF92AB823039F4E1E4F2E091E082
:1019C00090AF91AF92AF90AB833039F4E1E4F2E0A5
:1019D00091E090AF91AF90AB91AB843039F4E1E4FA
:1019E000F2E091E090AB91AB91AF92AF853039F4DA
:1019F000E1E4F2E091E090AF91AF92AF91AB86302D
:101A000039F4E1E4F2E081E080AF81AF81AB82ABF9
:101A1000DF91CF9108950E946A01811125C040E0B5
:101A200050E079C0A901440F551FCA01880F991FC2
:101A3000880F991F880F991F840F951F85559E4FFA
:101A4000FB013197E80FF91F4081FC01E60FF71FFA
:101A500040832F5F3F4F02C020E030E02830310547
:101A60000CF36150710902C06FE070E07723A4F7B6
:101A700020E030E011C0F901EE0FFF1FCF01880F09
:101A8000991F880F991F880F991FE80FF91FE555B7
:101A9000FE4F10822F5F3F4F2730310564F340C067
:101AA000FA01EE0FFF1FCF01880F991F880F991FB2
:101AB000880F991FE80FF91FE555FE4FE20FF31F3E
:101AC00080818823F1F0FA01E295F295F07FFE27FC
:101AD000E07FFE27E95DFE4FE20FF31F81E0808388
:101AE000FA01EE0FFF1FCF01880F991F880F991F72
:101AF000880F991FE80FF91FE555FE4FE20FF31FFE
:101B000010822F5F3F4F02C020E030E020313105CE
:101B10003CF24F5F5F4F48305105B4F30E94520CC6
:101B20000E94DA000895CF92DF92EF92FF920F9316
:101B30001F93CF93DF93CDB7DEB7C058D1090FB64F
:101B4000F894DEBF0FBECDBF20E030E025C0FC0121
:101B5000E295F295F07FFE27E07FFE27EA57FD4FE2
:101B6000E20FF31F4081F901EE0FFF1FEE0FFF1F81
:101B7000EE0FFF1F61E070E06C0F7D1FE60FF71F97
:101B8000E80FF91F4083019602C080E090E08830A2
:101B90009105ECF22F5F3F4F28303105B4F328E078
:101BA00030E026C0FC01E295F295F07FFE27E07F51
:101BB000FE27EA57FD4FE20FF31F4081F9013897E6
:101BC000EE0FFF1FEE0FFF1FEE0FFF1F61E470E02F
:101BD0006C0F7D1FE60FF71FE80FF91F408301967A
:101BE00002C080E090E088309105E4F22F5F3F4F23
:101BF00020313105B4F320E030E009C0019602C085
:101C000080E090E088309105CCF32F5F3F4F283083
:101C10003105B4F328E030E009C0019602C080E04D
:101C200090E088309105CCF32F5F3F4F2031310594
:101C3000B4F300E010E097C0FF0CFC01EE0FFF1FB3
:101C4000EE0FFF1FEE0FFF1F21E030E02C0F3D1FB6
:101C5000E20FF31FE00FF11F2081222319F03F2D27
:101C60003160F32E019603C080E090E0F12C8830C3
:101C7000910514F340E080E090E014C0440FFC01B3
:101C8000EE0FFF1FEE0FFF1FEE0FFF1F61E470E06E
:101C90006C0F7D1FE60FF71FE00FF11F2081211150
:101CA00041600196883091054CF380911A01882398
:101CB00009F44EC00E948504C0908202D090830235
:101CC000E0908402F0908502DC01CB018C199D0923
:101CD000AE09BF098093A7019093A801A093A90121
:101CE000B093AA014FE0602F82E00E9411044FE000
:101CF000602F83E00E9411048091A7019091A801B8
:101D0000A091A901B091AA01803D9740A105B1051C
:101D100050F4809118019091190101969093190146
:101D2000809318011EC040E0602F82E00E941104E1
:101D300040E0602F83E00E94110440E0602F82E0C9
:101D40000E94110440E0602F83E00E94110409C04A
:101D5000602F81E00E9411044F2D602F82E00E94CD
:101D600011040F5F1F4F083011050CF47DCF8091D7
:101D70001A01811116C020E030E010C0019602C0A7
:101D800080E090E088309105CCF380E090E001C0E5
:101D9000019688309105E4F32F5F3F4F28303105DD
:101DA0007CF3C058DF4F0FB6F894DEBF0FBECDBF37
:101DB000DF91CF911F910F91FF90EF90DF90CF9027
:101DC00008951F920F920FB60F9211242F933F93F5
:101DD0004F935F936F937F938F939F93AF93BF9333
:101DE000EF93FF930E94930DFF91EF91BF91AF91FD
:101DF0009F918F917F916F915F914F913F912F9123
:101E00000F900FBE0F901F9018951F920F920FB654
:101E10000F9211248F939F93AF93BF9380913D02B4
:101E200090913E02A0913F02B09140020196A11D07
:101E3000B11D80933D0290933E02A0933F02B09368
:101E40004002BF91AF919F918F910F900FBE0F9065
:101E50001F9018951092B200E0E7F0E08081826058
:101E600080830895CF93DF9385B18B7F85B9C1E0DF
:101E7000D0E00DC08CE00E94660080E00E94660009
:101E80008CE00E94660080E00E9466002196C430CB
:101E9000D10584F385B1846085B90E942A0F85B18C
:101EA0008B7F85B9C1E0D0E00DC080E00E94660064
:101EB00080E00E94660080E00E94660080E00E9450
:101EC00066002196C430D10584F385B1846085B95C
:101ED000DF91CF9108951F920F920FB60F921124A8
:101EE0002F933F934F935F936F937F938F939F9322
:101EF000AF93BF93EF93FF938091160190911701D9
:101F0000019719F481E00E94320F80E00E94320FA5
:101F1000FF91EF91BF91AF919F918F917F916F91C1
:101F20005F914F913F912F910F900FBE0F901F9097
:101F30001895ECE7F0E09081907F8F70892B80837B
:101F4000EAE7F0E080818064808380917A0086FDFA
:101F5000FCCF80917800909179000895ECE7F0E053
:101F6000808180648083EAE7F0E0808187688083F5
:101F700008950E9453000E946B000E94B20060917D
:101F800008017091090180910A0190910B010E9452
:101F90006C040E94CD000E94AE0F80E00E94990F59
:101FA0000E94C2100E9407040E94520C0E94DA0094
:101FB0000E94930D0E94850400911F011091200141
:101FC00020912101309122010617170728073907B0
:101FD000D0F40E9485040091060110910701012EA2
:101FE000000C220B330BDC01CB01800F911FA21FD1
:101FF000B31F80931F0190932001A0932101B09300
:1020000022010E940B0D0E949504809126018823D5
:1020100021F00E94E5041092260180912501882379
:1020200021F00E9400031092250180912401882351
:1020300021F00E947C0210922401809123018823C8
:1020400009F4B6CF0E940B0D10922301B1CF97FB7C
:10205000072E16F4009407D077FD09D00E945D107A
:1020600007FC05D03EF4909581959F4F089570959B
:1020700061957F4F0895A1E21A2EAA1BBB1BFD019B
:102080000DC0AA1FBB1FEE1FFF1FA217B307E40757
:10209000F50720F0A21BB30BE40BF50B661F771FAF
:1020A000881F991F1A9469F760957095809590958F
:1020B0009B01AC01BD01CF010895AA1BBB1B51E1DF
:1020C00007C0AA1FBB1FA617B70710F0A61BB70BA8
:1020D000881F991F5A95A9F780959095BC01CD014D
:1020E00008958F929F92AF92BF92CF92DF92EF921C
:1020F000FF92CF93DF93EC01688179818A819B8184
:10210000611571058105910521F464E279ED8BE596
:1021100097E02DE133EF41E050E00E94CD104901FE
:102120005A019B01AC01A7EAB1E40E94EC106B01DB
:102130007C01ACEEB4EFA50194010E94FA10DC0121
:10214000CB018C0D9D1DAE1DBF1DB7FF03C00197B8
:10215000A109B04888839983AA83BB839F77DF91C5
:10216000CF91FF90EF90DF90CF90BF90AF909F9076
:102170008F9008950E947110089580E091E00E9470
:1021800071100895A0E0B0E08093000190930101E8
:10219000A0930201B09303010895052E97FB1EF44E
:1021A00000940E94E41057FD07D00E943B1007FCEA
:1021B00003D04EF40C94E410509540953095219541
:1021C0003F4F4F4F5F4F0895909580957095619563
:1021D0007F4F8F4F9F4F08950E94FF10A59F900D36
:1021E000B49F900DA49F800D911D11240895B7FFF9
:1021F0000C94EC100E94EC10821B930B0895A29F8C
:10220000B001B39FC001A39F700D811D1124911DCA
:10221000B29F700D811D1124911D0895F894FFCF78
:10222000010000000100F4010080BB000101010178
:08223000010101010F00010092
:00000001FF
