S01100005465747269735F56312E73726563B2
S11300000C9478000C9495000C9495000C94950035
S11300100C9495000C9495000C9495000C94C60DCA
S11300200C9495000C9495000C9495000C94600D20
S11300300C9495000C9495000C943C0D0C94950034
S11300400C9495000C9495000C9495000C949500D8
S11300500C9495000C9495000C9495000C949500C8
S11300600C9495000C949500181818181818181862
S113007000003C3C0C0C0C0C00000C0C0C0C3C3C2C
S11300800000003C3C3C3C0000000C0C3C3C30308C
S113009000000C0C3C3C0C0C000030303C3C0C0CC4
S11300A0003E7F51497F3E000001017F7F11010026
S11300B000236745497931000044C69292FE6C00E2
S11300C0000C14247F7F080000727351515F4E00AE
S11300D0003E7F49496F2600006060475F786000FA
S11300E000367F49497F360000327B49497F3E0014
S11300F011241FBECFEFD8E0DEBFCDBF11E0A0E0DA
S1130100B1E0E2E0F6E202C005900D92A831B10739
S1130110D9F722E0A8E1B1E001C01D92A83CB207E2
S1130120E1F70E94A8110C94FF120C94000084B112
S1130130846084B985B1846085B984B1886084B9E8
S113014084B1806284B98CB580618CBD8CB58064C7
S11301508CBD08958EBD0DB407FEFDCF0895CF93D9
S1130160C62F0E94AA008C2F0E94AA00CF91089546
S1130170CF9385B18B7F85B9C0E007C08AE00E9428
S1130180AA008FE10E94AA00CF5FC330B8F385B103
S1130190846085B985B18B7F85B9C0E007C08BE0E9
S11301A00E94AA0087E00E94AA00CF5FC330B8F380
S11301B085B1846085B985B18B7F85B9C0E007C0FE
S11301C08CE00E94AA0081E00E94AA00CF5FC330A5
S11301D0B8F385B1846085B985B18B7F85B9C0E0FA
S11301E007C08FE00E94AA0080E00E94AA00CF5FAF
S11301F0C330B8F385B1846085B9CF910895CF93A6
S1130200DF93D1E012C085B18B7F85B9C0E007C010
S11302108D2F0E94AA0080E00E94AA00CF5FC33005
S1130220B8F385B1846085B9DF5FD93060F3DF91BD
S1130230CF9108958AB1807F8AB98BB18F608BB9D1
S11302408FEF97E70197F1F700C00000089560E091
S113025070E02FC0FB01EE0FFF1FCF01880F991F25
S1130260880F991F880F991FE80FF91FE355FE4F58
S1130270E20FF31F5081CB0182959295907F9827CE
S1130280807F9827FC01E75DFE4FE20FF31F40815A
S1130290452B885B9D4FFC01E20FF31F40832F5FCA
S11302A03F4F02C020E030E0203131059CF26F5F07
S11302B07F4F68307105B4F3089540E050E02BC0DF
S11302C0F901EE0FFF1FCF01880F991F880F991FA7
S11302D0880F991FE80FF91FE355FE4FE40FF51F30
S11302E08081882371F0F901E295F295F07FFE2771
S11302F0E07FFE27E75DFE4FE40FF51F808181114B
S113030032C02F5F3F4F02C020E030E0273031057C
S1130310BCF24F5F5F4F40315105B4F340E150E010
S11303201DC0F901EE0FFF1FCF01880F991F880F21
S1130330991F880F991FE80FF91FE355FE4FE40F2B
S1130340F51F8081811111C02F5F3F4F02C020E053
S113035030E0273031052CF34F5F5F4F42315105B8
S1130360B4F381E0089580E0089580E00895CF9388
S1130370DF93C0E0D0E018C085B18B7F85B9E091F0
S11303804302F0E0EE0FFF1FEE0FFF1FEE0FFF1F03
S1130390EC0FFD1FE859FF4F64918C2F0E94AF00B2
S11303A085B1846085B92196C830D1052CF3DF91DD
S11303B0CF9108954FE050E030C0F901EE0FFF1FD8
S11303C0CF01880F991F880F991F880F991FE80F75
S11303D0F91FE355FE4FE40FF51F8081882399F040
S11303E04F305105F1F0F901E295F295F07FFE27C7
S11303F0E07FFE27E75DFE4FCA010196E80FF91F73
S11304008081811110C02F5F3F4F02C020E030E097
S11304102830310594F2415051095523BCF781E04D
S1130420089580E0089580E008954FE050E03CC0D6
S1130430F901EE0FFF1FCF01880F991F880F991F35
S1130440880F991FE80FF91FE355FE4FE40FF51FBE
S113045080818823F9F02230310550F1F901319778
S1130460E295F295F07FFE27E07FFE27E75DFE4FE1
S1130470E40FF51F9081F9013297E295F295F07F30
S1130480FE27E07FFE27E75DFE4FE40FF51F808126
S1130490892B81F42F5F3F4F02C020E030E02830E9
S11304A0310534F2415051095523BCF781E00895D8
S11304B080E0089580E008954FE050E04BC0F901DA
S11304C0EE0FFF1FCF01880F991F880F991F880F08
S11304D0991FE80FF91FE355FE4FE40FF51F8081C4
S11304E0882369F123303105C8F1F9013197E29588
S11304F0F295F07FFE27E07FFE27E75DFE4FE40FD5
S1130500F51F9081F9013297E295F295F07FFE276D
S1130510E07FFE27E75DFE4FE40FF51F8081892B06
S1130520F9013397E295F295F07FFE27E07FFE27ED
S1130530E75DFE4FE40FF51F9081892B89F42F5F4F
S11305403F4F02C020E030E0283031050CF4B7CF33
S1130550415051095523B4F781E0089580E008958E
S113056080E008954FE050E02FC0F901EE0FFF1F27
S1130570CF01880F991F880F991F880F991FE80FC3
S1130580F91FE355FE4FE40FF51F8081882391F096
S113059021153105E9F0F9013197E295F295F07FE3
S11305A0FE27E07FFE27E75DFE4FE40FF51F808105
S11305B0811110C02F5F3F4F02C020E030E028308F
S11305C031059CF2415051095523BCF781E008954F
S11305D080E0089580E00895CF930E94B202C82F6E
S11305E081112FC040C0FA013196EE0FFF1FCF01D9
S11305F0880F991F880F991F880F991FE80FF91FFB
S1130600E355FE4FE20FF31F6081FA01EE0FFF1F67
S1130610CF01880F991F880F991F880F991FE80F22
S1130620F91FE355FE4FE20FF31F60832F5F3F4F27
S113063002C020E030E020313105ACF24F5F5F4F63
S113064002C040E050E0473051059CF380E090E068
S113065005C0FC01E55DFD4F1082019680319105D6
S1130660C4F30E9427018C2FCF9108954FE050E0EE
S11306702FC0F901EE0FFF1FCF01880F991F880FBC
S1130680991F880F991FE80FF91FE355FE4FE40FD8
S1130690F51F8081882391F027303105E9F0F901B5
S11306A03196E295F295F07FFE27E07FFE27E75D25
S11306B0FE4FE40FF51F8081811110C02F5F3F4F63
S11306C002C020E030E0283031059CF2415051094D
S11306D05523BCF781E0089580E0089580E00895F3
S11306E0CF930E943603C82F81112FC040C0FA0156
S11306F03197EE0FFF1FCF01880F991F880F991FA5
S1130700880F991FE80FF91FE355FE4FE20FF31FFF
S11307106081FA01EE0FFF1FCF01880F991F880F28
S1130720991F880F991FE80FF91FE355FE4FE20F39
S1130730F31F60832F5F3F4F02C020E030E0203181
S11307403105ACF24150510902C047E050E01416A3
S113075015069CF380E090E005C0FC01E355FE4FD4
S11307601082019680319105C4F30E9427018C2FD9
S1130770CF9108954FE050E04CC0F901EE0FFF1FF8
S1130780CF01880F991F880F991F880F991FE80FB1
S1130790F91FE355FE4FE40FF51F8081882371F1A3
S11307A0C90105970397C8F1F9013196E295F295CD
S11307B0F07FFE27E07FFE27E75DFE4FE40FF51F85
S11307C09081F9013296E295F295F07FFE27E07F61
S11307D0FE27E75DFE4FE40FF51F8081892BF901A9
S11307E03396E295F295F07FFE27E07FFE27E75DE2
S11307F0FE4FE40FF51F9081892B89F42F5F3F4F43
S113080002C020E030E0283031050CF4B6CF41506E
S113081051095523B4F781E0089580E0089580E0FC
S113082008954FE050E03DC0F901EE0FFF1FCF01E6
S1130830880F991F880F991F880F991FE80FF91FB8
S1130840E355FE4FE40FF51F8081882301F1C901B0
S11308500697029750F1F9013196E295F295F07FEF
S1130860FE27E07FFE27E75DFE4FE40FF51F908132
S1130870F9013296E295F295F07FFE27E07FFE279C
S1130880E75DFE4FE40FF51F8081892B81F42F5F14
S11308903F4F02C020E030E0283031052CF24150B7
S11308A051095523BCF781E0089580E0089580E064
S11308B008950F931F93CF93DF93082F162F85B1BD
S11308C08B7F85B9C1E0D0E007C0802F0E94AA00C9
S11308D0812F0E94AA002196C730D105B4F385B1B7
S11308E0846085B9DF91CF911F910F910895609134
S11308F014018AE00E94590460E080E00E945904D7
S11309000895FF920F931F93CF93DF93182FF62E22
S1130910042F85B18B7F85B9C3E0D0E040C012308D
S1130920A1F480E00E94AA0080E00E94AA0081E075
S11309308F0D0E94AA00802F0E94AA0080E00E94CE
S1130940AA0080E00E94AA0029C01130A1F480E02E
S11309500E94AA0080E00E94AA0080E00E94AA00EF
S113096080E00E94AA0081E08F0D0E94AA00802FDF
S11309700E94AA0013C081E08F0D0E94AA00802F5C
S11309800E94AA0080E00E94AA0080E00E94AA00BF
S113099080E00E94AA0080E00E94AA0021971C1611
S11309A01D060CF4BCCF85B1846085B9DF91CF916D
S11309B01F910F91FF90089520E43FE140E050E043
S11309C00E942C12E1E8F0E080818A608083BB27DA
S11309D0A52F942F832F8093890020938800EFE61E
S11309E0F0E08081826080830895F89421E009C05A
S11309F060913F02709140028091410290914202C5
S1130A0020E02111F5CF789408950F931F930E944D
S1130A10F50400911D0110911E0120911F013091D8
S1130A202001601771078207930718F480E090E0B3
S1130A3039C039B131703093130129B12695217031
S1130A402093120199B192FB992790F99093110187
S1130A5089B183FB882780F98093100140910F01AD
S1130A60341718F441E04093280140910E012417F3
S1130A7018F441E04093270140910D01941718F4B4
S1130A8041E04093260140910C01841718F441E0A1
S1130A904093250130930F0120930E0190930D0193
S1130AA080930C011F910F910895CF92DF92EF92E2
S1130AB0FF920F931F93CF93DF9340913D024330F6
S1130AC009F483C667E070E01DC0FB01EE0FFF1F51
S1130AD0CF01880F991F880F991F880F991FE80F5E
S1130AE0F91FE355FE4FE20FF31F808181118B0143
S1130AF02F5F3F4F02C020E030E0203131052CF35E
S1130B00615071097723BCF76FE070E01DC0F901F3
S1130B10EE0FFF1FCF01880F991F880F991F880FB1
S1130B20991FE80FF91FE355FE4FE60FF71F808169
S1130B308111EB012F5F3F4F02C020E030E02830ED
S1130B4031052CF3615071097723BCF74111F0C0D2
S1130B5080913E02811193C00E94B20281110DC0A6
S1130B600E94BA03882309F430C60E9470038823C4
S1130B7009F42BC60F5F1F4F26C00E943603811154
S1130B8012C00E945C02882309F41FC60E94EC0272
S1130B90882309F41AC60E94EC02882309F415C6B6
S1130BA00250110910C00E94110481110CC00E944E
S1130BB01502882309F409C60E94EC02882309F46B
S1130BC004C6015011099801220F331FC901880F6F
S1130BD0991F880F991F880F991F820F931F8355A0
S1130BE09E4FFC01EC0FFD1F1082FE013296E80FB0
S1130BF0F91F10829E012D5F3F4FFC01E20FF31F8E
S1130C001082F8013197EE0FFF1FCF01880F991F53
S1130C10880F991F880F991FE80FF91FE355FE4F9E
S1130C2022503109E20FF31F41E04083F80131966D
S1130C30EE0FFF1FCF01880F991F880F991F880F90
S1130C40991FE80FF91FE355FE4FE20FF31F40838E
S1130C50C8010296BC01660F771FCB01880F991F4C
S1130C60880F991F880F991F860F971F83559E4FD2
S1130C70FC01E20FF31F408340933E0259C0F80188
S1130C80EE0FFF1FCF01880F991F880F991F880F40
S1130C90991FE80FF91FE355FE4FEC0FFD1F10825B
S1130CA0F8013296EE0FFF1FCF01880F991F880FAE
S1130CB0991F880F991FE80FF91FE355FE4FEC0F9A
S1130CC0FD1F1082F8013396EE0FFF1FCF01880F2E
S1130CD0991F880F991F880F991FE80FF91FE35573
S1130CE0FE4FEC0FFD1F1082C80101969C01220FDC
S1130CF0331FC901880F991F880F991F880F991FE7
S1130D00820F931F83559E4FFE013197E80FF91F01
S1130D1041E04083FE013196E80FF91F40839E01B4
S1130D202E5F3F4FFC01E20FF31F408310923E02FF
S1130D3078018FEFE81AF80A6E019FEFC91AD90AF1
S1130D4080913D02813009F04AC180913E028111B7
S1130D5048C09801220F331FC901880F991F880FBB
S1130D60991F880F991F820F931F83559E4FFC0173
S1130D70EC0FFD1F1082FC01EC0DFD1D1082C8015B
S1130D800296880F991F9C01220F331F220F331FD5
S1130D90220F331F820F931F83559E4FFC01EC0DCE
S1130DA0FD1D1082A701440F551F9A01220F331F06
S1130DB0220F331F220F331F240F351F23553E4F9D
S1130DC0F901EC0FFD1F41E04083FC01EC0FFD1F16
S1130DD040832296F901EC0FFD1F408340933E02AD
S1130DE0FEC0813009F058C00E94B202811109C0CE
S1130DF00E947003882309F4E8C4780182E0E80EB5
S1130E00F11CA701415051099A01220F331FC90156
S1130E10880F991F880F991F880F991F820F931F9E
S1130E2083559E4FFC01EC0FFD1F1082B701660F26
S1130E30771F9B01220F331F220F331F220F331FF3
S1130E40260F371F23553E4FF901EC0FFD1F10826B
S1130E502296FC01EC0FFD1F1082F7013297EE0F72
S1130E60FF1FCF01880F991F880F991F880F991FA3
S1130E70E80FF91FE355FE4FEC0DFD1D81E0808363
S1130E80F901EC0DFD1D8083C20FD31F888382E01E
S1130E9080933E027A01A3C0823009F04CC09801CD
S1130EA0220F331FC901880F991F880F991F880FBC
S1130EB0991F820F931F83559E4FFC01EC0FFD1F5A
S1130EC0108298012E5F3F4FA901440F551F9A01CC
S1130ED0220F331F220F331F220F331F240F351FFE
S1130EE023553E4FF901EC0FFD1F1082F901EC0D63
S1130EF0FD1D1082FE013197A701440F551F9A0171
S1130F00220F331F220F331F220F331F240F351FCD
S1130F1023553E4FE20FF31F41E04083F901EC0DEE
S1130F20FD1D4083FC01EC0DFD1D408383E0809397
S1130F303E026E0154C00E943603811105C00E9416
S1130F40EC02811102C041C487019801220F331FB2
S1130F50C901880F991F880F991F880F991F820F45
S1130F60931F83559E4FFC01EC0FFD1F10829E01C1
S1130F702E5F3F4FFC01E20FF31F1082C80101975F
S1130F80AC01440F551FCA01880F991F880F991F80
S1130F90880F991F840F951F83559E4FFC01E20F04
S1130FA0F31F1082C80FD91F21E02883FC01EC0D28
S1130FB0FD1D2083F8013196EE0FFF1FCF01880F2E
S1130FC0991F880F991F880F991FE80FF91FE35580
S1130FD0FE4FEC0DFD1D208310923E02780180919E
S1130FE03D02823009F05BC180913E0281114DC007
S1130FF0C7010196880F991F9C01220F331F220FEE
S1131000331F220F331F820F931F83559E4FA60158
S113101041505109FC01E40FF51F1082F70131978B
S1131020EE0FFF1F9F01220F331F220F331F220FCA
S1131030331FE20FF31FE355FE4FEC0DFD1D10822D
S1131040FC01EC0DFD1D1082B701660F771F9B019B
S1131050220F331F220F331F220F331F260F371F78
S113106023553E4FF901E40FF51F51E05083B601BB
S11310706F5F7F4FFC01E60FF71F5083F901E60F06
S1131080F71F508350933E020AC1813009F05DC0BE
S11310900E94B202811108C00E947003882309F4DF
S11310A094C39FEFE91AF90A970121503109A90164
S11310B0440F551FCA01880F991F880F991F880F65
S11310C0991F840F951F83559E4FF6013197E80FA2
S11310D0F91F1082B701660F771FAB01440F551F2C
S11310E0440F551F440F551F460F571F43555E4F5E
S11310F0B6016F5F7F4FFA01E60FF71F1082FC0104
S1131100E60FF71F1082C7010297FC01EE0FFF1FC5
S1131110CF01880F991F880F991F880F991F8E0F71
S11311209F1F83559E4FDC01AC0DBD1DE1E0EC9388
S1131130DA01AC0DBD1DEC93DC01A60FB71FEC93D7
S113114082E080933E027901AAC0823009F04EC049
S1131150A60141505109C7010197880F991F9C01AD
S1131160220F331F220F331F220F331F820F931FAF
S11311709C0123553E4FF901E40FF51F1082F7013E
S11311803196EE0FFF1FCF01880F991F880F991F0B
S1131190880F991FE80FF91FE355FE4FE40FF51F61
S11311A01082F901EC0DFD1D1082F6013297B70192
S11311B0660F771FCB01880F991F880F991F880F1F
S11311C0991F860F971F83559E4FDC01AE0FBF1FDB
S11311D061E06C93DC01AC0DBD1D6C93E20FF31F59
S11311E0608383E080933E026A0159C00E94360303
S11311F0811108C00E94EC02882309F4E6C281E050
S1131200E81AF1089701220F331FC901880F991FAB
S1131210880F991F880F991F820F931F83559E4F24
S1131220F6013197DC01AE0FBF1F1C9296012F5FB0
S11312303F4FDC01A20FB31F1C92C7010197880F17
S1131240991F9C01220F331F220F331F220F331FBC
S1131250820F931F9C0123553E4FD901AE0FBF1F30
S11312601C92C7010196AC01440F551FCA01880F97
S1131270991F880F991F880F991F840F951F8355F5
S11312809E4FE80FF91F41E04083F901EC0DFD1D6D
S11312904083FC01EC0DFD1D408310923E028091C1
S11312A03D02843009F07AC080913E02811135C03C
S11312B0C7010196880F991F9C01220F331F220F2B
S11312C0331F220F331F820F931F83559E4FF60146
S11312D03197E80FF91F1082F7013197EE0FFF1FC6
S11312E09F01220F331F220F331F220F331FE20FE0
S11312F0F31FE355FE4FEC0DFD1D1082FC01EC0DB8
S1131300FD1D21E02083A6014F5F5F4FFC01E40F28
S1131310F51F208320933E0241C00E94B202811136
S113132008C00E947003882309F44FC29FEFE91A92
S1131330F90A9701220F331FC901880F991F880FDB
S1131340991F880F991F280F391F23553E4FF90104
S1131350EC0DFD1D1082F6013196E20FF31F108291
S1131360F7013297EE0FFF1FCF01880F991F880FE7
S1131370991F880F991FE80FF91FE355FE4FEC0DD5
S1131380FD1D41E04083C6010197F901E80FF91FF3
S1131390408310923E02C70101977C0180913D0277
S11313A0853009F02DC180913E02811142C0970120
S11313B0220F331FC901880F991F880F991F880FA7
S11313C0991F280F391F23553E4FD6011197A20F9D
S11313D0B31FF7013197EE0FFF1FCF01880F991F3D
S11313E0880F991F880F991FE80FF91FE355FE4FC7
S11313F0EC0DFD1D1082F7013196EE0FFF1FCF019A
S1131400880F991F880F991F880F991FE80FF91FDC
S1131410E355FE4FEC0DFD1D81E08C938083A60106
S11314204F5F5F4FF901E40FF51F808380933E0205
S1131430E7C0813009F051C00E94B202811108C096
S11314400E947003882309F4C0C19FEFE91AF90AC6
S1131450970121503109A901440F551FCA01880F72
S1131460991F880F991F880F991F840F951FAC012E
S113147043555E4FF6013197E40FF51F1082F701D3
S1131480EE0FFF1FCF01880F991F880F991F880F38
S1131490991FE80FF91FE355FE4FEC0DFD1DE60102
S11314A02196C40FD51FD7011297AA0FBB1FCD01D8
S11314B0880F991F880F991F880F991FA80FB91FAC
S11314C0A355BE4FAC0DBD1D81E08C9380838883F2
S11314D082E080933E02790193C0823009F044C0D7
S11314E0960121503109F7013197EE0FFF1FCF010B
S11314F0880F991F880F991F880F991FE80FF91FEC
S1131500E355FE4FE20FF31FD7011196AA0FBB1F3D
S1131510CD01880F991F880F991F880F991FA80F55
S1131520B91FA355BE4FA20FB31F1C92A701440FAE
S1131530551FCA01880F991F880F991F880F991F7B
S1131540840F951F83559E4FEC01CC0DDD1DD601F4
S11315501297A80FB91F91E09C939083988383E01E
S113156080933E0269014CC00E943603811108C079
S11315700E94EC02882309F428C181E0E81AF108EA
S11315809701220F331FC901880F991F880F991FD4
S1131590880F991F280F391F23553E4FD6011197E5
S11315A0A20FB31FF7013197EE0FFF1FCF01880F72
S11315B0991F880F991F880F991FE80FF91FE3558A
S11315C0FE4FEC0DFD1DC6010196E901C80FD91FA0
S11315D0188221E02C932083F7013196EE0FFF1F30
S11315E0CF01880F991F880F991F880F991FE80F43
S11315F0F91FE355FE4FEC0DFD1D208310923E02B2
S113160080913D02863009F0DAC080913E0281115A
S113161046C0F7013197960121503109EE0FFF1FA3
S1131620CF01880F991F880F991F880F991FE80F02
S1131630F91FE355FE4FE20FF31F1082B701660F47
S1131640771FCB01880F991F880F991F880F991F47
S1131650680F791F63557E4FFB01E20FF31F108261
S1131660C7010196AC01440F551FCA01880F991F89
S1131670880F991F880F991F840F951F83559E4FBC
S1131680FC01E20FF31F81E080839FEFC91AD90A9E
S1131690FB01EC0DFD1D808380933E0290C00E94EF
S11316A0B202811108C00E947003882309F48DC01E
S11316B08FEFE81AF80AA701415051099601215009
S11316C03109F701EE0FFF1FCF01880F991F880F13
S11316D0991F880F991FE80FF91FE355FE4FE20F7A
S11316E0F31F1082F6013196CA01880F991FAC01CD
S11316F0440F551F440F551F440F551F840F951F4A
S1131700AC0143555E4FE40FF51F1082C7010297E9
S1131710880F991FFC01EE0FFF1FEE0FFF1FEE0F46
S1131720FF1FE80FF91FE355FE4FE20FF31F81E09F
S11317308083FA01E20FF31F808310923E023FC0C0
S1131740A901440F551FCA01880F991F880F991FBB
S1131750880F991F840F951F83559E4FFB01319667
S1131760E80FF91F4081FC01E60FF71F40832F5F4C
S11317703F4F02C020E030E0283031050CF36F5FAA
S11317807F4F02C060E070E0623171059CF30E94FB
S1131790F5040091060110910701012E000C220BA3
S11317A0330BDC01CB01800F911FA21FB31F809369
S11317B0210190932201A0932301B09324010E945C
S11317C05D018823F9F20E942701DF91CF911F91D7
S11317D00F91FF90EF90DF90CF900895CF92DF921A
S11317E0EF92FF920F931F93CF93DF93CDB7DEB7A2
S11317F0C058D1090FB6F894DEBF0FBECDBF20E0AC
S113180030E025C0FC01E295F295F07FFE27E07FF1
S1131810FE27E85BFD4FE20FF31F4081F901EE0F55
S1131820FF1FEE0FFF1FEE0FFF1F61E070E06C0F54
S11318307D1FE60FF71FE80FF91F4083019602C0D2
S113184080E090E088309105ECF22F5F3F4F283024
S11318503105B4F328E030E026C0FC01E295F295AE
S1131860F07FFE27E07FFE27E85BFD4FE20FF31FCA
S11318704081F9013897EE0FFF1FEE0FFF1FEE0FA7
S1131880FF1F61E470E06C0F7D1FE60FF71FE80F88
S1131890F91F4083019602C080E090E088309105F2
S11318A0E4F22F5F3F4F20313105B4F320E030E004
S11318B009C0019602C080E090E088309105CCF325
S11318C02F5F3F4F28303105B4F328E030E009C0E2
S11318D0019602C080E090E088309105CCF32F5F40
S11318E03F4F20313105B4F300E010E097C0FF0C06
S11318F0FC01EE0FFF1FEE0FFF1FEE0FFF1F21E095
S113190030E02C0F3D1FE20FF31FE00FF11F208189
S1131910222319F03F2D3160F32E019603C080E09D
S113192090E0F12C8830910514F340E080E090E0E1
S113193014C0440FFC01EE0FFF1FEE0FFF1FEE0F4C
S1131940FF1F61E470E06C0F7D1FE60FF71FE00FCF
S1131950F11F2081211141600196883091054CF3DB
S113196080911C01882309F44EC00E94F504C090A4
S11319704402D0904502E0904602F0904702DC0118
S1131980CB018C199D09AE09BF098093A9019093DD
S1131990AA01A093AB01B093AC014FE0602F82E0A9
S11319A00E9481044FE0602F83E00E9481048091B3
S11319B0A9019091AA01A091AB01B091AC01803D25
S11319C09740A105B10550F480911A0190911B0133
S11319D0019690931B0180931A011EC040E0602F72
S11319E082E00E94810440E0602F83E00E94810431
S11319F040E0602F82E00E94810440E0602F83E099
S1131A000E94810409C0602F81E00E9481044F2D4F
S1131A10602F82E00E9481040F5F1F4F0830110580
S1131A200CF47DCF80911C01811116C020E030E0C0
S1131A3010C0019602C080E090E088309105CCF39C
S1131A4080E090E001C0019688309105E4F32F5FB7
S1131A503F4F283031057CF3C058DF4F0FB6F89460
S1131A60DEBF0FBECDBFDF91CF911F910F91FF90CD
S1131A70EF90DF90CF9008951F920F920FB60F92C0
S1131A8011242F933F934F935F936F937F938F937F
S1131A909F93AF93BF93EF93FF930E94EE0BFF913D
S1131AA0EF91BF91AF919F918F917F916F915F91D2
S1131AB04F913F912F910F900FBE0F901F9018954B
S1131AC01F920F920FB60F9211248F939F93AF938F
S1131AD0BF9380913F0290914002A0914102B09146
S1131AE042020196A11DB11D80933F0290934002D2
S1131AF0A0934102B0934202BF91AF919F918F9105
S1131B000F900FBE0F901F9018951092B200E0E74F
S1131B10F0E08081826080830895CF93DF9385B164
S1131B208B7F85B9C1E0D0E00DC08CE00E94AA0093
S1131B3080E00E94AA008CE00E94AA0080E00E943B
S1131B40AA002196C430D10584F385B1846085B997
S1131B500E94850D85B18B7F85B9C1E0D0E00DC0B1
S1131B6080E00E94AA0080E00E94AA0080E00E9417
S1131B70AA0080E00E94AA002196C430D10584F313
S1131B8085B1846085B9DF91CF9108951F920F923A
S1131B900FB60F9211242F933F934F935F936F933C
S1131BA07F938F939F93AF93BF93EF93FF93809112
S1131BB0160190911701019719F481E00E948D0D8F
S1131BC080E00E948D0DFF91EF91BF91AF919F91A5
S1131BD08F917F916F915F914F913F912F910F90D2
S1131BE00FBE0F901F901895ECE7F0E09081907F66
S1131BF08F70892B8083EAE7F0E0808180648083A2
S1131C0080917A0086FDFCCF8091780090917900D4
S1131C100895ECE7F0E0808180648083EAE7F0E0F7
S1131C208081876880830895EF92FF920F931F93BA
S1131C30CF93DF938C01C0E0D0E08FC10A3011054F
S1131C4028F185B18B7F85B9FE01E056FF4F649181
S1131C508C2F0E94AF00FE01E855FF4F64918C2F3A
S1131C600E94AF00F8013A97EE0FFF1FEE0FFF1F1F
S1131C70EE0FFF1FEC0FFD1FE056FF4F64918C2FFA
S1131C800E94AF0085B1846085B966C10431110535
S1131C9028F185B18B7F85B9FE01E056FF4F649131
S1131CA08C2F0E94AF00FE01E055FF4F64918C2FF2
S1131CB00E94AF00F8017497EE0FFF1FEE0FFF1F95
S1131CC0EE0FFF1FEC0FFD1FE056FF4F64918C2FAA
S1131CD00E94AF0085B1846085B93EC10E31110503
S1131CE028F185B18B7F85B9FE01E056FF4F6491E1
S1131CF08C2F0E94AF00FE01E854FF4F64918C2F9B
S1131D000E94AF00F8017E97EE0FFF1FEE0FFF1F3A
S1131D10EE0FFF1FEC0FFD1FE056FF4F64918C2F59
S1131D200E94AF0085B1846085B916C108321105DF
S1131D3028F185B18B7F85B9FE01E056FF4F649190
S1131D408C2F0E94AF00FE01E054FF4F64918C2F52
S1131D500E94AF00F801B897EE0FFF1FEE0FFF1FB0
S1131D60EE0FFF1FEC0FFD1FE056FF4F64918C2F09
S1131D700E94AF0085B1846085B9EEC002331105BD
S1131D8028F185B18B7F85B9FE01E056FF4F649140
S1131D908C2F0E94AF00FE01E853FF4F64918C2FFB
S1131DA00E94AF00F801F297EE0FFF1FEE0FFF1F26
S1131DB0EE0FFF1FEC0FFD1FE056FF4F64918C2FB9
S1131DC00E94AF0085B1846085B9C6C00C3311058B
S1131DD028F185B18B7F85B9FE01E056FF4F6491F0
S1131DE08C2F0E94AF00FE01E053FF4F64918C2FB3
S1131DF00E94AF00F801FC97EE0FFF1FEE0FFF1FCC
S1131E00EE0FFF1FEC0FFD1FE056FF4F64918C2F68
S1131E100E94AF0085B1846085B99EC00634110567
S1131E2030F185B18B7F85B9FE01E056FF4F649197
S1131E308C2F0E94AF00FE01E852FF4F64918C2F5B
S1131E400E94AF00F801E654F109EE0FFF1FEE0FF8
S1131E50FF1FEE0FFF1FEC0FFD1FE056FF4F6491B5
S1131E608C2F0E94AF0085B1846085B975C00035A0
S1131E70110530F185B18B7F85B9FE01E056FF4F26
S1131E8064918C2F0E94AF00FE01E052FF4F6491D9
S1131E908C2F0E94AF00F801E055F109EE0FFF1FEF
S1131EA0EE0FFF1FEE0FFF1FEC0FFD1FE056FF4F5D
S1131EB064918C2F0E94AF0085B1846085B94CC0B9
S1131EC00A35110530F185B18B7F85B9FE01E056E5
S1131ED0FF4F64918C2F0E94AF00FE01E851FF4F29
S1131EE064918C2F0E94AF00F801EA55F109EE0FBE
S1131EF0FF1FEE0FFF1FEE0FFF1FEC0FFD1FE0563D
S1131F00FF4F64918C2F0E94AF0085B1846085B926
S1131F1023C085B18B7F85B9CE0180569F4F7C014C
S1131F20FC0164918C2F0E94AF00F70164918C2F07
S1131F300E94AF00F801EE0FFF1FEE0FFF1FEE0F20
S1131F40FF1FEC0FFD1FE056FF4F64918C2F0E9482
S1131F50AF0085B1846085B92196C830D1050CF4F1
S1131F606DCEDF91CF911F910F91FF90EF90089567
S1131F7081E080931C010E94F504609344027093F5
S1131F80450280934602909347020E94FF0080918D
S1131F901801909119010E94140E0E940505909158
S1131FA0280180912701892B90912601892B9091FA
S1131FB02501892B91F30E94FF00109219011092C0
S1131FC0180110921C012FE030E015C0FC01E295CD
S1131FD0F295F07FFE27E07FFE27E75DFE4FE20FDC
S1131FE0F31F1082019602C080E090E088309105D2
S1131FF06CF3215031093323BCF71092280110925D
S11320002701109226011092250181E090E090931F
S11320100501809304010895CF93DF93CFE0D0E0CE
S113202072C0FC01E295F295F07FFE27E07FFE2767
S1132030E75DFE4FEC0FFD1F2081222311F04F5F5F
S11320405F4F019604C040E050E080E090E08830AB
S113205091053CF34830510509F054C00EC0FC0111
S1132060E295F295F07FFE27E07FFE27E75DFE4FC5
S1132070EC0FFD1F1082019602C080E090E08830D2
S113208091056CF30E942701AE011CC0C901829521
S11320909295907F9827807F9827875D9E4FFA01BD
S11320A03197E80FF91F6081FC01E40FF51F60838D
S11320B02F5F3F4F02C020E030E02830310534F379
S11320C04150510914161506B4F380E090E00BC09A
S11320D0FC01E295F295F07FFE27E07FFE27E75DA5
S11320E0FE4F108201968830910594F30E942701D7
S11320F021968091180190911901019690931901EC
S1132100809318012197DD230CF09DCFC0E0D0E02F
S11321100EC0FE01E295F295F07FFE27E07FFE27D8
S1132120E75DFE4F808181110E94B80F2196C8306F
S1132130D1057CF3DF91CF910895CF93DF930E9473
S11321400C108091040190910501019789F40E947B
S1132150AE12C6E0D0E0BE010E94181280933D0288
S11321600E94AE12BE010E941812809343020CC05A
S11321708091430280933D020E94AE1266E070E0BB
S11321800E9418128093430280913D02811107C07E
S1132190EDEAF1E091E096AB97AB90AF91AF81306F
S11321A041F4EDEAF1E091E094A395A397AB909309
S11321B0F601823049F4EDEAF1E091E09093F50103
S11321C095A397AB9093F601833049F4EDEAF1E0DF
S11321D091E096AB97AB9093F5019093F601843020
S11321E049F491E09093F501909307029093E401F0
S11321F09093F601853049F491E09093F501909322
S1132200E4019093F60190930802863049F481E04A
S11322108093E3018093F5018093F6018093080293
S113222010923E020E94B701809104019091050131
S113223001969093050180930401DF91CF91089555
S11322400E94DA01811125C040E050E079C0A90163
S1132250440F551FCA01880F991F880F991F880FB3
S1132260991F840F951F83559E4FFB013197E80FEB
S1132270F91F4081FC01E60FF71F40832F5F3F4F9A
S113228002C020E030E0283031050CF361507109C0
S113229002C06FE070E07723A4F720E030E011C0C3
S11322A0F901EE0FFF1FCF01880F991F880F991FA7
S11322B0880F991FE80FF91FE355FE4F10822F5F17
S11322C03F4F2730310564F340C0FA01EE0FFF1F82
S11322D0CF01880F991F880F991F880F991FE80F46
S11322E0F91FE355FE4FE20FF31F80818823F1F0BD
S11322F0FA01E295F295F07FFE27E07FFE27E75D85
S1132300FE4FE20FF31F81E08083FA01EE0FFF1FFF
S1132310CF01880F991F880F991F880F991FE80F05
S1132320F91FE355FE4FE20FF31F10822F5F3F4F5B
S113233002C020E030E0203131053CF24F5F5F4FB6
S113234048305105B4F30E949D100E94270108955E
S11323500E9497000E94B8000E94FF00609108014B
S11323607091090180910A0190910B010E94DC0493
S11323700E941A010E94090E80E00E94F40D0E943E
S1132380B3120E9477040E94B7010E949D100E941C
S113239027010E94EE0B0E94F50400912101109187
S11323A022012091230130912401061717072807E1
S11323B03907D0F40E94F504009106011091070139
S11323C0012E000C220B330BDC01CB01800F911F7B
S11323D0A21FB31F8093210190932201A093230194
S11323E0B09324010E9420110E94050580912801C8
S11323F0882321F00E94550510922801809127011D
S1132400882321F00E9470031092270180912601F5
S1132410882321F00E94EC0210922601809125016C
S1132420882309F4B6CF0E94201110922501B1CF60
S113243097FB072E16F4009407D077FD09D00E946D
S11324404E1207FC05D03EF4909581959F4F089558
S1132450709561957F4F0895A1E21A2EAA1BBB1BAC
S1132460FD010DC0AA1FBB1FEE1FFF1FA217B3075C
S1132470E407F50720F0A21BB30BE40BF50B661F72
S1132480771F881F991F1A9469F760957095809536
S113249090959B01AC01BD01CF010895AA1BBB1B04
S11324A051E107C0AA1FBB1FA617B70710F0A61B50
S11324B0B70B881F991F5A95A9F780959095BC0171
S11324C0CD0108958F929F92AF92BF92CF92DF92E7
S11324D0EF92FF92CF93DF93EC01688179818A8137
S11324E09B81611571058105910521F464E279ED03
S11324F08BE597E02DE133EF41E050E00E94BE12FE
S113250049015A019B01AC01A7EAB1E40E94DD1222
S11325106B017C01ACEEB4EFA50194010E94EB12B7
S1132520DC01CB018C0D9D1DAE1DBF1DB7FF03C08B
S11325300197A109B04888839983AA83BB839F77B5
S1132540DF91CF91FF90EF90DF90CF90BF90AF904D
S11325509F908F9008950E946212089580E091E008
S11325600E9462120895A0E0B0E08093000190936D
S11325700101A0930201B09303010895052E97FB76
S11325801EF400940E94D51257FD07D00E942C120D
S113259007FC03D04EF40C94D51250954095309519
S11325A021953F4F4F4F5F4F0895909580957095BB
S11325B061957F4F8F4F9F4F08950E94F012A59F02
S11325C0900DB49F900DA49F800D911D112408952A
S11325D0B7FF0C94DD120E94DD12821B930B089549
S11325E0A29FB001B39FC001A39F700D811D112450
S11325F0911DB29F700D811D1124911D0895F894B1
S1052600FFCF06
S1132602010000000100F4010080BB00010101018E
S10B2612010101010F000100A8
S9030000FC
