:100000000C9434000C9451000C9451000C94510049
:100010000C9451000C9451000C9451000C940D0F51
:100020000C9451000C9451000C9451000C94A70EA8
:100030000C9451000C9451000C94830E0C945100BC
:100040000C9451000C9451000C9451000C945100EC
:100050000C9451000C9451000C9451000C945100DC
:100060000C9451000C94510011241FBECFEFD8E026
:10007000DEBFCDBF11E0A0E0B1E0ECE5F1E202C0EF
:1000800005900D92A631B107D9F722E0A6E1B1E0C3
:1000900001C01D92AF3BB207E1F70E945B0F0C94C9
:1000A000AC100C94000084B1846084B985B1846084
:1000B00085B984B1886084B984B1806284B98CB513
:1000C00080618CBD8CB580648CBD08958EBD0DB4EF
:1000D00007FEFDCF0895CF9385B18B7F85B9C0E032
:1000E00007C08EE00E94660087E00E946600CF5F36
:1000F000C330B8F385B1846085B985B18B7F85B98C
:10010000C0E007C08BE00E94660087E00E946600A6
:10011000CF5FC330B8F385B1846085B985B18B7F7B
:1001200085B9C0E007C08CE00E94660081E00E94B3
:100130006600CF5FC330B8F385B1846085B985B1FF
:100140008B7F85B9C0E007C08FE00E94660080E029
:100150000E946600CF5FC330B8F385B1846085B973
:10016000CF910895CF93DF93D1E012C085B18B7FFB
:1001700085B9C0E007C08D2F0E94660080E00E9414
:100180006600CF5FC330B8F385B1846085B9DF5FA7
:10019000D93060F3DF91CF9108958AB1807F8AB919
:1001A0008BB18F608BB98FEF97E70197F1F700C0A4
:1001B0000000089560E070E02FC0FB01EE0FFF1F0C
:1001C000CF01880F991F880F991F880F991FE80F7B
:1001D000F91FEB55FE4FE20FF31F5081CB018295C3
:1001E0009295907F9827807F9827FC01EF5DFE4FC6
:1001F000E20FF31F4081452B815C9D4FFC01E20F14
:10020000F31F40832F5F3F4F02C020E030E02031DA
:1002100031059CF26F5F7F4F68307105B4F308952C
:1002200040E050E02BC0F901EE0FFF1FCF01880F17
:10023000991F880F991F880F991FE80FF91FEB5519
:10024000FE4FE40FF51F8081882371F0F901E295DC
:10025000F295F07FFE27E07FFE27EF5DFE4FE40F73
:10026000F51F8081811132C02F5F3F4F02C020E017
:1002700030E027303105BCF24F5F5F4F4031510510
:10028000B4F340E150E01DC0F901EE0FFF1FCF01B4
:10029000880F991F880F991F880F991FE80FF91F62
:1002A000EB55FE4FE40FF51F8081811111C02F5FC8
:1002B0003F4F02C020E030E0273031052CF34F5F84
:1002C0005F4F42315105B4F381E0089580E0089515
:1002D00080E008954FE050E030C0F901EE0FFF1FBD
:1002E000CF01880F991F880F991F880F991FE80F5A
:1002F000F91FEB55FE4FE40FF51F8081882399F01D
:100300004F305105F1F0F901E295F295F07FFE27AB
:10031000E07FFE27EF5DFE4FCA010196E80FF91F4F
:100320008081811110C02F5F3F4F02C020E030E07C
:100330002830310594F2415051095523BCF781E032
:10034000089580E0089580E008954FE050E03CC0BB
:10035000F901EE0FFF1FCF01880F991F880F991F1A
:10036000880F991FE80FF91FEB55FE4FE40FF51F9B
:1003700080818823F9F02230310550F1F90131975D
:10038000E295F295F07FFE27E07FFE27EF5DFE4FBE
:10039000E40FF51F9081F9013297E295F295F07F15
:1003A000FE27E07FFE27EF5DFE4FE40FF51F808103
:1003B000892B81F42F5F3F4F02C020E030E02830CE
:1003C000310534F2415051095523BCF781E00895BD
:1003D00080E0089580E008954FE050E04BC0F901BF
:1003E000EE0FFF1FCF01880F991F880F991F880FED
:1003F000991FE80FF91FEB55FE4FE40FF51F8081A1
:10040000882369F123303105C8F1F9013197E2956C
:10041000F295F07FFE27E07FFE27EF5DFE4FE40FB1
:10042000F51F9081F9013297E295F295F07FFE2752
:10043000E07FFE27EF5DFE4FE40FF51F8081892BE3
:10044000F9013397E295F295F07FFE27E07FFE27D2
:10045000EF5DFE4FE40FF51F9081892B89F42F5F2C
:100460003F4F02C020E030E0283031050CF4B7CF18
:10047000415051095523B4F781E0089580E0089573
:1004800080E008954FE050E02FC0F901EE0FFF1F0C
:10049000CF01880F991F880F991F880F991FE80FA8
:1004A000F91FEB55FE4FE40FF51F8081882391F073
:1004B00021153105E9F0F9013197E295F295F07FC8
:1004C000FE27E07FFE27EF5DFE4FE40FF51F8081E2
:1004D000811110C02F5F3F4F02C020E030E0283074
:1004E00031059CF2415051095523BCF781E0089534
:1004F00080E0089580E00895CF930E944202C82FC3
:1005000081112FC040C0FA013196EE0FFF1FCF01BD
:10051000880F991F880F991F880F991FE80FF91FDF
:10052000EB55FE4FE20FF31F6081FA01EE0FFF1F44
:10053000CF01880F991F880F991F880F991FE80F07
:10054000F91FEB55FE4FE20FF31F60832F5F3F4F04
:1005500002C020E030E020313105ACF24F5F5F4F48
:1005600002C040E050E0473051059CF380E090E04D
:1005700005C0FC01ED5DFD4F1082019680319105B3
:10058000C4F30E94DA008C2FCF9108954FE050E021
:100590002FC0F901EE0FFF1FCF01880F991F880FA1
:1005A000991F880F991FE80FF91FEB55FE4FE40FB5
:1005B000F51F8081882391F027303105E9F0F9019A
:1005C0003196E295F295F07FFE27E07FFE27EF5D02
:1005D000FE4FE40FF51F8081811110C02F5F3F4F48
:1005E00002C020E030E0283031059CF24150510932
:1005F0005523BCF781E0089580E0089580E00895D8
:10060000CF930E94C602C82F81112FC040C0FA01AB
:100610003197EE0FFF1FCF01880F991F880F991F89
:10062000880F991FE80FF91FEB55FE4FE20FF31FDC
:100630006081FA01EE0FFF1FCF01880F991F880F0D
:10064000991F880F991FE80FF91FEB55FE4FE20F16
:10065000F31F60832F5F3F4F02C020E030E0203166
:100660003105ACF24150510902C047E050E0141688
:1006700015069CF380E090E005C0FC01EB55FE4FB1
:100680001082019680319105C4F30E94DA008C2F0C
:10069000CF9108954FE050E04CC0F901EE0FFF1FDD
:1006A000CF01880F991F880F991F880F991FE80F96
:1006B000F91FEB55FE4FE40FF51F8081882371F180
:1006C000C90105970397C8F1F9013196E295F295B2
:1006D000F07FFE27E07FFE27EF5DFE4FE40FF51F62
:1006E0009081F9013296E295F295F07FFE27E07F46
:1006F000FE27EF5DFE4FE40FF51F8081892BF90186
:100700003396E295F295F07FFE27E07FFE27EF5DBE
:10071000FE4FE40FF51F9081892B89F42F5F3F4F27
:1007200002C020E030E0283031050CF4B6CF415053
:1007300051095523B4F781E0089580E0089580E0E1
:1007400008954FE050E03DC0F901EE0FFF1FCF01CB
:10075000880F991F880F991F880F991FE80FF91F9D
:10076000EB55FE4FE40FF51F8081882301F1C9018D
:100770000697029750F1F9013196E295F295F07FD4
:10078000FE27E07FFE27EF5DFE4FE40FF51F90810F
:10079000F9013296E295F295F07FFE27E07FFE2781
:1007A000EF5DFE4FE40FF51F8081892B81F42F5FF1
:1007B0003F4F02C020E030E0283031052CF241509C
:1007C00051095523BCF781E0089580E0089580E049
:1007D00008950F931F93CF93DF93082F162F85B1A2
:1007E0008B7F85B9C1E0D0E007C0802F0E946600F2
:1007F000812F0E9466002196C730D105B4F385B1E0
:10080000846085B9DF91CF911F910F910895609118
:1008100012018AE00E94E90360E080E00E94E9039F
:100820000895FF920F931F93CF93DF93182FF62E07
:10083000042F85B18B7F85B9C3E0D0E040C0123072
:10084000A1F480E00E94660080E00E94660081E0E2
:100850008F0D0E946600802F0E94660080E00E943B
:10086000660080E00E94660029C01130A1F480E09B
:100870000E94660080E00E94660080E00E946600A0
:1008800080E00E94660081E08F0D0E946600802F4C
:100890000E94660013C081E08F0D0E946600802FC9
:1008A0000E94660080E00E94660080E00E94660070
:1008B00080E00E94660080E00E94660021971C167E
:1008C0001D060CF4BCCF85B1846085B9DF91CF9152
:1008D0001F910F91FF90089520E43FE140E050E028
:1008E0000E94D90FE1E8F0E080818A608083BB2715
:1008F000A52F942F832F8093890020938800EFE603
:10090000F0E08081826080830895F89421E009C03E
:1009100060913702709138028091390290913A02C9
:1009200020E02111F5CF789408950F931F930E9432
:1009300085040091190110911A0120911B01309139
:100940001C01601771078207930770F189B18170EC
:100950008093110199B1969591709093100129B1EE
:1009600022FB222720F920930F0139B133FB3327D3
:1009700030F930930E0140910D018417C0F0409181
:100980000C019417B8F040910B012417B0F040917E
:100990000A013417A8F080930D0190930C01209365
:1009A0000B0130930A010EC080E090E00BC081E0A3
:1009B00090E008C082E090E005C084E090E002C0D2
:1009C00083E090E01F910F910895CF92DF92EF9214
:1009D000FF920F931F93CF93DF93409135024330E3
:1009E00009F483C667E070E01DC0FB01EE0FFF1F36
:1009F000CF01880F991F880F991F880F991FE80F43
:100A0000F91FEB55FE4FE20FF31F808181118B011F
:100A10002F5F3F4F02C020E030E0203131052CF342
:100A2000615071097723BCF76FE070E01DC0F901D8
:100A3000EE0FFF1FCF01880F991F880F991F880F96
:100A4000991FE80FF91FEB55FE4FE60FF71F808146
:100A50008111EB012F5F3F4F02C020E030E02830D2
:100A600031052CF3615071097723BCF74111F0C0B7
:100A700080913602811193C00E94420281110DC003
:100A80000E944A03882309F430C60E940003882389
:100A900009F42BC60F5F1F4F26C00E94C6028111AA
:100AA00012C00E94EC01882309F41FC60E947C0238
:100AB000882309F41AC60E947C02882309F415C60B
:100AC0000250110910C00E94A10381110CC00E94A4
:100AD000A501882309F409C60E947C02882309F431
:100AE00004C6015011099801220F331FC901880F54
:100AF000991F880F991F880F991F820F931F8B557D
:100B00009E4FFC01EC0FFD1F1082FE013296E80F94
:100B1000F91F10829E012D5F3F4FFC01E20FF31F72
:100B20001082F8013197EE0FFF1FCF01880F991F38
:100B3000880F991F880F991FE80FF91FEB55FE4F7B
:100B400022503109E20FF31F41E04083F801319652
:100B5000EE0FFF1FCF01880F991F880F991F880F75
:100B6000991FE80FF91FEB55FE4FE20FF31F40836B
:100B7000C8010296BC01660F771FCB01880F991F31
:100B8000880F991F880F991F860F971F8B559E4FAF
:100B9000FC01E20FF31F40834093360259C0F80175
:100BA000EE0FFF1FCF01880F991F880F991F880F25
:100BB000991FE80FF91FEB55FE4FEC0FFD1F108238
:100BC000F8013296EE0FFF1FCF01880F991F880F93
:100BD000991F880F991FE80FF91FEB55FE4FEC0F77
:100BE000FD1F1082F8013396EE0FFF1FCF01880F13
:100BF000991F880F991F880F991FE80FF91FEB5550
:100C0000FE4FEC0FFD1F1082C80101969C01220FC0
:100C1000331FC901880F991F880F991F880F991FCB
:100C2000820F931F8B559E4FFE013197E80FF91FDE
:100C300041E04083FE013196E80FF91F40839E0199
:100C40002E5F3F4FFC01E20FF31F408310923602EC
:100C500078018FEFE81AF80A6E019FEFC91AD90AD6
:100C600080913502813009F04AC1809136028111AC
:100C700048C09801220F331FC901880F991F880FA0
:100C8000991F880F991F820F931F8B559E4FFC0150
:100C9000EC0FFD1F1082FC01EC0DFD1D1082C80140
:100CA0000296880F991F9C01220F331F220F331FBA
:100CB000220F331F820F931F8B559E4FFC01EC0DAB
:100CC000FD1D1082A701440F551F9A01220F331FEB
:100CD000220F331F220F331F240F351F2B553E4F7A
:100CE000F901EC0FFD1F41E04083FC01EC0FFD1FFB
:100CF00040832296F901EC0FFD1F4083409336029A
:100D0000FEC0813009F058C00E944202811109C022
:100D10000E940003882309F4E8C4780182E0E80E09
:100D2000F11CA701415051099A01220F331FC9013B
:100D3000880F991F880F991F880F991F820F931F83
:100D40008B559E4FFC01EC0FFD1F1082B701660F03
:100D5000771F9B01220F331F220F331F220F331FD8
:100D6000260F371F2B553E4FF901EC0FFD1F108248
:100D70002296FC01EC0FFD1F1082F7013297EE0F57
:100D8000FF1FCF01880F991F880F991F880F991F88
:100D9000E80FF91FEB55FE4FEC0DFD1D81E0808340
:100DA000F901EC0DFD1D8083C20FD31F888382E003
:100DB000809336027A01A3C0823009F04CC09801BA
:100DC000220F331FC901880F991F880F991F880FA1
:100DD000991F820F931F8B559E4FFC01EC0FFD1F37
:100DE000108298012E5F3F4FA901440F551F9A01B1
:100DF000220F331F220F331F220F331F240F351FE3
:100E00002B553E4FF901EC0FFD1F1082F901EC0D3F
:100E1000FD1D1082FE013197A701440F551F9A0155
:100E2000220F331F220F331F220F331F240F351FB2
:100E30002B553E4FE20FF31F41E04083F901EC0DCB
:100E4000FD1D4083FC01EC0DFD1D408383E080937C
:100E500036026E0154C00E94C602811105C00E9474
:100E60007C02811102C041C487019801220F331F07
:100E7000C901880F991F880F991F880F991F820F2A
:100E8000931F8B559E4FFC01EC0FFD1F10829E019E
:100E90002E5F3F4FFC01E20FF31F1082C801019744
:100EA000AC01440F551FCA01880F991F880F991F65
:100EB000880F991F840F951F8B559E4FFC01E20FE1
:100EC000F31F1082C80FD91F21E02883FC01EC0D0D
:100ED000FD1D2083F8013196EE0FFF1FCF01880F13
:100EE000991F880F991F880F991FE80FF91FEB555D
:100EF000FE4FEC0DFD1D208310923602780180918B
:100F00003502823009F05BC18091360281114DC0FB
:100F1000C7010196880F991F9C01220F331F220FD2
:100F2000331F220F331F820F931F8B559E4FA60135
:100F300041505109FC01E40FF51F1082F701319770
:100F4000EE0FFF1F9F01220F331F220F331F220FAF
:100F5000331FE20FF31FEB55FE4FEC0DFD1D10820A
:100F6000FC01EC0DFD1D1082B701660F771F9B0180
:100F7000220F331F220F331F220F331F260F371F5D
:100F80002B553E4FF901E40FF51F51E05083B60198
:100F90006F5F7F4FFC01E60FF71F5083F901E60FEB
:100FA000F71F5083509336020AC1813009F05DC0AB
:100FB0000E944202811108C00E940003882309F4A4
:100FC00094C39FEFE91AF90A970121503109A90149
:100FD000440F551FCA01880F991F880F991F880F4A
:100FE000991F840F951F8B559E4FF6013197E80F7F
:100FF000F91F1082B701660F771FAB01440F551F11
:10100000440F551F440F551F460F571F4B555E4F3A
:10101000B6016F5F7F4FFA01E60FF71F1082FC01E8
:10102000E60FF71F1082C7010297FC01EE0FFF1FAA
:10103000CF01880F991F880F991F880F991F8E0F56
:101040009F1F8B559E4FDC01AC0DBD1DE1E0EC9365
:10105000DA01AC0DBD1DEC93DC01A60FB71FEC93BC
:1010600082E0809336027901AAC0823009F04EC036
:10107000A60141505109C7010197880F991F9C0192
:10108000220F331F220F331F220F331F820F931F94
:101090009C012B553E4FF901E40FF51F1082F7011B
:1010A0003196EE0FFF1FCF01880F991F880F991FF0
:1010B000880F991FE80FF91FEB55FE4FE40FF51F3E
:1010C0001082F901EC0DFD1D1082F6013297B70177
:1010D000660F771FCB01880F991F880F991F880F04
:1010E000991F860F971F8B559E4FDC01AE0FBF1FB8
:1010F00061E06C93DC01AC0DBD1D6C93E20FF31F3E
:10110000608383E0809336026A0159C00E94C60260
:10111000811108C00E947C02882309F4E6C281E0A4
:10112000E81AF1089701220F331FC901880F991F90
:10113000880F991F880F991F820F931F8B559E4F01
:10114000F6013197DC01AE0FBF1F1C9296012F5F95
:101150003F4FDC01A20FB31F1C92C7010197880FFC
:10116000991F9C01220F331F220F331F220F331FA1
:10117000820F931F9C012B553E4FD901AE0FBF1F0D
:101180001C92C7010196AC01440F551FCA01880F7C
:10119000991F880F991F880F991F840F951F8B55D2
:1011A0009E4FE80FF91F41E04083F901EC0DFD1D52
:1011B0004083FC01EC0DFD1D4083109236028091AE
:1011C0003502843009F07AC080913602811135C031
:1011D000C7010196880F991F9C01220F331F220F10
:1011E000331F220F331F820F931F8B559E4FF60123
:1011F0003197E80FF91F1082F7013197EE0FFF1FAB
:101200009F01220F331F220F331F220F331FE20FC4
:10121000F31FEB55FE4FEC0DFD1D1082FC01EC0D94
:10122000FD1D21E02083A6014F5F5F4FFC01E40F0D
:10123000F51F20832093360241C00E944202811193
:1012400008C00E940003882309F44FC29FEFE91AE7
:10125000F90A9701220F331FC901880F991F880FC0
:10126000991F880F991F280F391F2B553E4FF901E1
:10127000EC0DFD1D1082F6013196E20FF31F108276
:10128000F7013297EE0FFF1FCF01880F991F880FCC
:10129000991F880F991FE80FF91FEB55FE4FEC0DB2
:1012A000FD1D41E04083C6010197F901E80FF91FD8
:1012B000408310923602C70101977C01809135026C
:1012C000853009F02DC180913602811142C097010D
:1012D000220F331FC901880F991F880F991F880F8C
:1012E000991F280F391F2B553E4FD6011197A20F7A
:1012F000B31FF7013197EE0FFF1FCF01880F991F22
:10130000880F991F880F991FE80FF91FEB55FE4FA3
:10131000EC0DFD1D1082F7013196EE0FFF1FCF017E
:10132000880F991F880F991F880F991FE80FF91FC1
:10133000EB55FE4FEC0DFD1D81E08C938083A601E3
:101340004F5F5F4FF901E40FF51F808380933602F2
:10135000E7C0813009F051C00E944202811108C0EB
:101360000E940003882309F4C0C19FEFE91AF90A1B
:10137000970121503109A901440F551FCA01880F57
:10138000991F880F991F880F991F840F951FAC0113
:101390004B555E4FF6013197E40FF51F1082F701B0
:1013A000EE0FFF1FCF01880F991F880F991F880F1D
:1013B000991FE80FF91FEB55FE4FEC0DFD1DE601DF
:1013C0002196C40FD51FD7011297AA0FBB1FCD01BD
:1013D000880F991F880F991F880F991FA80FB91F91
:1013E000AB55BE4FAC0DBD1D81E08C9380838883CF
:1013F00082E080933602790193C0823009F044C0C4
:10140000960121503109F7013197EE0FFF1FCF01EF
:10141000880F991F880F991F880F991FE80FF91FD0
:10142000EB55FE4FE20FF31FD7011196AA0FBB1F1A
:10143000CD01880F991F880F991F880F991FA80F3A
:10144000B91FAB55BE4FA20FB31F1C92A701440F8B
:10145000551FCA01880F991F880F991F880F991F60
:10146000840F951F8B559E4FEC01CC0DDD1DD601D1
:101470001297A80FB91F91E09C939083988383E003
:101480008093360269014CC00E94C602811108C0D7
:101490000E947C02882309F428C181E0E81AF1083F
:1014A0009701220F331FC901880F991F880F991FB9
:1014B000880F991F280F391F2B553E4FD6011197C2
:1014C000A20FB31FF7013197EE0FFF1FCF01880F57
:1014D000991F880F991F880F991FE80FF91FEB5567
:1014E000FE4FEC0DFD1DC6010196E901C80FD91F85
:1014F000188221E02C932083F7013196EE0FFF1F15
:10150000CF01880F991F880F991F880F991FE80F27
:10151000F91FEB55FE4FEC0DFD1D20831092360296
:1015200080913502863009F0DAC08091360281114F
:1015300046C0F7013197960121503109EE0FFF1F88
:10154000CF01880F991F880F991F880F991FE80FE7
:10155000F91FEB55FE4FE20FF31F1082B701660F24
:10156000771FCB01880F991F880F991F880F991F2C
:10157000680F791F6B557E4FFB01E20FF31F10823E
:10158000C7010196AC01440F551FCA01880F991F6E
:10159000880F991F880F991F840F951F8B559E4F99
:1015A000FC01E20FF31F81E080839FEFC91AD90A83
:1015B000FB01EC0DFD1D80838093360290C00E94DC
:1015C0004202811108C00E940003882309F48DC0E3
:1015D0008FEFE81AF80AA7014150510996012150EE
:1015E0003109F701EE0FFF1FCF01880F991F880FF8
:1015F000991F880F991FE80FF91FEB55FE4FE20F57
:10160000F31F1082F6013196CA01880F991FAC01B1
:10161000440F551F440F551F440F551F840F951F2E
:10162000AC014B555E4FE40FF51F1082C7010297C6
:10163000880F991FFC01EE0FFF1FEE0FFF1FEE0F2B
:10164000FF1FE80FF91FEB55FE4FE20FF31F81E07C
:101650008083FA01E20FF31F8083109236023FC0AD
:10166000A901440F551FCA01880F991F880F991FA0
:10167000880F991F840F951F8B559E4FFB01319644
:10168000E80FF91F4081FC01E60FF71F40832F5F31
:101690003F4F02C020E030E0283031050CF36F5F8F
:1016A0007F4F02C060E070E0623171059CF30E94E0
:1016B00085040091040110910501012E000C220BFC
:1016C000330BDC01CB01800F911FA21FB31F80934E
:1016D0001D0190931E01A0931F01B09320010E9451
:1016E00010018823F9F20E94DA00DF91CF911F9157
:1016F0000F91FF90EF90DF90CF90089581E080935D
:1017000018010E94850460933B0270933C02809311
:101710003D0290933E0289E993E00197F1F700C002
:101720000E94950401970497D8F7109218012FE0B2
:1017300030E015C0FC01E295F295F07FFE27E07FD6
:10174000FE27EF5DFE4FE20FF31F1082019602C0ED
:1017500080E090E0883091056CF32150310933230B
:10176000BCF70895CF93DF93CFE0D0E07BC0FC01BE
:10177000E295F295F07FFE27E07FFE27EF5DFE4FBA
:10178000EC0FFD1F2081222311F04F5F5F4F019668
:1017900004C040E050E080E090E0883091053CF3E8
:1017A0004830510509F05DC00EC0FC01E295F2958C
:1017B000F07FFE27E07FFE27EF5DFE4FEC0FFD1F61
:1017C0001082019602C080E090E0883091056CF3B1
:1017D0000E94DA002FEF8FED91E021508040904081
:1017E000E1F700C00000AE011CC0C90182959295CE
:1017F000907F9827807F98278F5D9E4FFA013197C1
:10180000E80FF91F6081FC01E40FF51F60832F5F73
:101810003F4F02C020E030E02830310534F3415022
:10182000510914161506B4F380E090E00BC0FC01DA
:10183000E295F295F07FFE27E07FFE27EF5DFE4FF9
:10184000108201968830910594F30E94DA002FEF00
:101850008FED91E0215080409040E1F700C0000002
:1018600021962197DD230CF094CFC0E0D0E00EC08C
:10187000FE01E295F295F07FFE27E07FFE27EF5D07
:10188000FE4F808181110E947E0B2196C830D105C8
:101890007CF3DF91CF9108950E94B20B0E945B1000
:1018A00066E070E00E94C50F982F80933502811189
:1018B00007C0E5EAF1E081E086AB87AB80AF81AF9E
:1018C000913041F4E5EAF1E081E084A385A387ABA0
:1018D0008093EE01923049F4E5EAF1E081E08093F3
:1018E000ED0185A387AB8093EE01933049F4E5EADF
:1018F000F1E081E086AB87AB8093ED018093EE0150
:10190000943049F481E08093ED018093FF0180934E
:10191000DC018093EE01953049F481E08093ED0184
:101920008093DC018093EE0180930002963049F4AD
:1019300081E08093DB018093ED018093EE01809341
:1019400000021092360208950E946A01811125C09A
:1019500040E050E079C0A901440F551FCA01880F2B
:10196000991F880F991F880F991F840F951F8B55FA
:101970009E4FFB013197E80FF91F4081FC01E60FF4
:10198000F71F40832F5F3F4F02C020E030E0283038
:1019900031050CF36150710902C06FE070E07723EC
:1019A000A4F720E030E011C0F901EE0FFF1FCF01D6
:1019B000880F991F880F991F880F991FE80FF91F2B
:1019C000EB55FE4F10822F5F3F4F2730310564F3F8
:1019D00040C0FA01EE0FFF1FCF01880F991F880F3B
:1019E000991F880F991FE80FF91FEB55FE4FE20F63
:1019F000F31F80818823F1F0FA01E295F295F07FE0
:101A0000FE27E07FFE27EF5DFE4FE20FF31F81E030
:101A10008083FA01EE0FFF1FCF01880F991F880FF7
:101A2000991F880F991FE80FF91FEB55FE4FE20F22
:101A3000F31F10822F5F3F4F02C020E030E02031C3
:101A400031053CF24F5F5F4F48305105B4F30E94BF
:101A50004C0C0E94DA000895CF92DF92EF92FF9231
:101A60000F931F93CF93DF93CDB7DEB7C058D10943
:101A70000FB6F894DEBF0FBECDBF20E030E025C02A
:101A8000FC01E295F295F07FFE27E07FFE27E15C06
:101A9000FD4FE20FF31F4081F901EE0FFF1FEE0F24
:101AA000FF1FEE0FFF1F61E070E06C0F7D1FE60F60
:101AB000F71FE80FF91F4083019602C080E090E015
:101AC00088309105ECF22F5F3F4F28303105B4F399
:101AD00028E030E026C0FC01E295F295F07FFE2779
:101AE000E07FFE27E15CFD4FE20FF31F4081F9012B
:101AF0003897EE0FFF1FEE0FFF1FEE0FFF1F61E481
:101B000070E06C0F7D1FE60FF71FE80FF91F408391
:101B1000019602C080E090E088309105E4F22F5FEA
:101B20003F4F20313105B4F320E030E009C0019689
:101B300002C080E090E088309105CCF32F5F3F4FEA
:101B400028303105B4F328E030E009C0019602C026
:101B500080E090E088309105CCF32F5F3F4F20313B
:101B60003105B4F300E010E0A0C0FF0CFC01EE0F63
:101B7000FF1FEE0FFF1FEE0FFF1F21E030E02C0FC5
:101B80003D1FE20FF31FE00FF11F2081222319F008
:101B90003F2D3160F32E019603C080E090E0F12CE0
:101BA0008830910514F340E080E090E014C0440FC9
:101BB000FC01EE0FFF1FEE0FFF1FEE0FFF1F61E492
:101BC00070E06C0F7D1FE60FF71FE00FF11F208103
:101BD000211141600196883091054CF380911801E4
:101BE000882309F457C00E948504C0903B02D0901E
:101BF0003C02E0903D02F0903E02DC01CB018C19EA
:101C00009D09AE09BF098093A1019093A201A09301
:101C1000A301B093A4014FE0602F82E00E94110461
:101C20004FE0602F83E00E9411047FEF8FEB93E081
:101C3000715080409040E1F700C000008091A10108
:101C40009091A201A091A301B091A401803D974081
:101C5000A105B10550F480911601909117010196EC
:101C600090931701809316011EC040E0602F82E020
:101C70000E94110440E0602F83E00E94110440E0C4
:101C8000602F82E00E94110440E0602F83E00E94F8
:101C9000110409C0602F81E00E9411044F2D602FB4
:101CA00082E00E9411040F5F1F4F083011050CF4F1
:101CB00074CF80911801811116C020E030E010C06F
:101CC000019602C080E090E088309105CCF380E07E
:101CD00090E001C0019688309105E4F32F5F3F4FFB
:101CE000283031057CF3C058DF4F0FB6F894DEBFC3
:101CF0000FBECDBFDF91CF911F910F91FF90EF905D
:101D0000DF90CF9008951F920F920FB60F9211247B
:101D10002F933F934F935F936F937F938F939F93F3
:101D2000AF93BF93EF93FF930E942C0DFF91EF9120
:101D3000BF91AF919F918F917F916F915F914F91E3
:101D40003F912F910F900FBE0F901F9018951F92EB
:101D50000F920FB60F9211248F939F93AF93BF935F
:101D60008091370290913802A0913902B0913A02E5
:101D70000196A11DB11D8093370290933802A09364
:101D80003902B0933A02BF91AF919F918F910F901A
:101D90000FBE0F901F9018951092B200E0E7F0E090
:101DA0008081826080830895CF93DF9385B18B7F9C
:101DB00085B9C1E0D0E00DC08CE00E94660080E0F3
:101DC0000E9466008CE00E94660080E00E9466002F
:101DD0002196C430D10584F385B1846085B90E9411
:101DE000CC0E85B18B7F85B9C1E0D0E00DC080E01D
:101DF0000E94660080E00E94660080E00E9466000B
:101E000080E00E9466002196C430D10584F385B13C
:101E1000846085B9DF91CF9108951F920F920FB61C
:101E20000F9211242F933F934F935F936F937F9360
:101E30008F939F93AF93BF93EF93FF938091140180
:101E400090911501019719F481E00E94D40E80E071
:101E50000E94D40EFF91EF91BF91AF919F918F910E
:101E60007F916F915F914F913F912F910F900FBE96
:101E70000F901F901895ECE7F0E09081907F8F70A5
:101E8000892B8083EAE7F0E0808180648083809101
:101E90007A0086FDFCCF80917800909179000895BA
:101EA000ECE7F0E0808180648083EAE7F0E0808105
:101EB0008768808308950E9453000E946B000E94EF
:101EC000B200609106017091070180910801909124
:101ED00009010E946C040E94CD000E94500F80E016
:101EE0000E943B0F0E9460100E9407040E944C0C4D
:101EF0000E94DA000E942C0D2FEF8FE191E021501B
:101F000080409040E1F700C000000E9485040091ED
:101F10001D0110911E0120911F0130912001061713
:101F2000170728073907D0F40E948504009104019F
:101F300010910501012E000C220B330BDC01CB01AB
:101F4000800F911FA21FB31F80931D0190931E014C
:101F5000A0931F01B09320010E94A40C0E9495043D
:101F6000EC01019711F40E94E504C230D10511F48F
:101F70000E940003C330D10511F40E947C02249713
:101F800009F0B8CF0E94A40CB5CF97FB072E16F42A
:101F9000009407D077FD09D00E94FB0F07FC05D005
:101FA0003EF4909581959F4F0895709561957F4F70
:101FB0000895A1E21A2EAA1BBB1BFD010DC0AA1F8A
:101FC000BB1FEE1FFF1FA217B307E407F50720F0A2
:101FD000A21BB30BE40BF50B661F771F881F991F1D
:101FE0001A9469F760957095809590959B01AC0166
:101FF000BD01CF010895AA1BBB1B51E107C0AA1F59
:10200000BB1FA617B70710F0A61BB70B881F991F99
:102010005A95A9F780959095BC01CD0108958F92AE
:102020009F92AF92BF92CF92DF92EF92FF92CF93A7
:10203000DF93EC01688179818A819B81611571054B
:102040008105910521F464E279ED8BE597E02DE1BE
:1020500033EF41E050E00E946B1049015A019B01AF
:10206000AC01A7EAB1E40E948A106B017C01ACEEDE
:10207000B4EFA50194010E949810DC01CB018C0DF6
:102080009D1DAE1DBF1DB7FF03C00197A109B0483C
:1020900088839983AA83BB839F77DF91CF91FF9039
:1020A000EF90DF90CF90BF90AF909F908F9008956A
:1020B0000E940F10089580E091E00E940F10089593
:1020C000A0E0B0E08093000190930101A093020191
:1020D000B09303010895052E97FB1EF400940E940F
:1020E000821057FD07D00E94D90F07FC03D04EF491
:1020F0000C94821050954095309521953F4F4F4F4D
:102100005F4F089590958095709561957F4F8F4FA3
:102110009F4F08950E949D10A59F900DB49F900D14
:10212000A49F800D911D11240895B7FF0C948A106F
:102130000E948A10821B930B0895A29FB001B39F47
:10214000C001A39F700D811D1124911DB29F700DC0
:0C215000811D1124911D0895F894FFCF0B
:10215C0001000000F4010080BB000101010101013C
:06216C0001010F0001005B
:00000001FF
