S01100005465747269735F56312E73726563B2
S11300000C9478000C9495000C9495000C94950035
S11300100C9495000C9495000C9495000C94FF0D91
S11300200C9495000C9495000C9495000C94990DE7
S11300300C9495000C9495000C94750D0C949500FB
S11300400C9495000C9495000C9495000C949500D8
S11300500C9495000C9495000C9495000C949500C8
S11300600C9495000C949500181818181818181862
S113007000003C3C0C0C0C0C00000C0C0C0C3C3C2C
S11300800000003C3C3C3C0000000C0C3C3C30308C
S113009000000C0C3C3C0C0C000030303C3C0C0CC4
S11300A0003E7F51497F3E000001017F7F11010026
S11300B000236745497931000044C69292FE6C00E2
S11300C0000C14247F7F080000727351515F4E00AE
S11300D0003E7F49496F2600006060475F786000FA
S11300E000367F49497F360000327B49497F3E0014
S11300F011241FBECFEFD8E0DEBFCDBF11E0A0E0DA
S1130100B1E0E0E9F6E202C005900D92A831B10732
S1130110D9F722E0A8E1B1E001C01D92AC3CB207DE
S1130120E1F70E94ED110C9446130C94000084B185
S1130130846084B985B1846085B984B1886084B9E8
S113014084B1806284B98CB580618CBD8CB58064C7
S11301508CBD08958EBD0DB407FEFDCF0895CF93D9
S1130160C62F0E94AA008C2F0E94AA00CF91089546
S1130170CF9385B18B7F85B9C0E007C08AE00E9428
S1130180AA008FE10E94AA00CF5FC330B8F385B103
S1130190846085B985B18B7F85B9C0E007C08BE0E9
S11301A00E94AA0087E00E94AA00CF5FC330B8F380
S11301B085B1846085B985B18B7F85B9C0E007C0FE
S11301C08CE00E94AA0081E00E94AA00CF5FC330A5
S11301D0B8F385B1846085B985B18B7F85B9C0E0FA
S11301E007C08FE00E94AA0080E00E94AA00CF5FAF
S11301F0C330B8F385B1846085B9CF910895CF93A6
S1130200DF93D1E012C085B18B7F85B9C0E007C010
S11302108D2F0E94AA0080E00E94AA00CF5FC33005
S1130220B8F385B1846085B9DF5FD93060F3DF91BD
S1130230CF9108958AB1807F8AB98BB18F608BB9D1
S11302408FEF97E70197F1F700C0000008958091C0
S11302501001811104C080911301882399F08091C9
S11302601A0190911B01A0911C01B0911D010196EE
S1130270A11DB11D80931A0190931B01A0931C0131
S1130280B0931D0160911A0170911B0180911C01B2
S113029090911D016C392FEF720782072FE79207A7
S11302A070F024E833E040E050E00E947312609361
S11302B01A0170931B0180931C0190931D010895F2
S11302C060E070E02FC0FB01EE0FFF1FCF01880F2D
S11302D0991F880F991F880F991FE80FF91FEF5472
S11302E0FE4FE20FF31F5081CB0182959295907FD0
S11302F09827807F9827FC01E35DFE4FE20FF31FF0
S11303004081452B845B9D4FFC01E20FF31F40832A
S11303102F5F3F4F02C020E030E0203131059CF2D6
S11303206F5F7F4F68307105B4F3089540E050E08B
S11303302BC0F901EE0FFF1FCF01880F991F880F03
S1130340991F880F991FE80FF91FEF54FE4FE40F10
S1130350F51F8081882371F0F901E295F295F07F11
S1130360FE27E07FFE27E35DFE4FE40FF51F80814B
S1130370811132C02F5F3F4F02C020E030E02730B0
S11303803105BCF24F5F5F4F40315105B4F340E19A
S113039050E01DC0F901EE0FFF1FCF01880F991F18
S11303A0880F991F880F991FE80FF91FEF54FE4F0C
S11303B0E40FF51F8081811111C02F5F3F4F02C0F0
S11303C020E030E0273031052CF34F5F5F4F42319E
S11303D05105B4F381E0089580E0089580E0089524
S11303E0CF93DF93C0E0D0E018C085B18B7F85B98F
S11303F0E0914702F0E0EE0FFF1FEE0FFF1FEE0F3C
S1130400FF1FEC0FFD1FE859FF4F64918C2F0E94D2
S1130410AF0085B1846085B92196C830D1052CF32D
S1130420DF91CF9108954FE050E030C0F901EE0F15
S1130430FF1FCF01880F991F880F991F880F991FDD
S1130440E80FF91FEF54FE4FE40FF51F8081882356
S113045099F04F305105F1F0F901E295F295F07FF2
S1130460FE27E07FFE27E35DFE4FCA010196E80FF9
S1130470F91F8081811110C02F5F3F4F02C020E01F
S113048030E02830310594F2415051095523BCF72E
S113049081E0089580E0089580E008954FE050E001
S11304A03CC0F901EE0FFF1FCF01880F991F880F81
S11304B0991F880F991FE80FF91FEF54FE4FE40F9F
S11304C0F51F80818823F9F02230310550F1F901BC
S11304D03197E295F295F07FFE27E07FFE27E35DFA
S11304E0FE4FE40FF51F9081F9013297E295F295E2
S11304F0F07FFE27E07FFE27E35DFE4FE40FF51F4C
S11305008081892B81F42F5F3F4F02C020E030E0CF
S11305102830310534F2415051095523BCF781E0AC
S1130520089580E0089580E008954FE050E04BC0C6
S1130530F901EE0FFF1FCF01880F991F880F991F34
S1130540880F991FE80FF91FEF54FE4FE40FF51FB2
S11305508081882369F123303105C8F1F90131978D
S1130560E295F295F07FFE27E07FFE27E35DFE4FE4
S1130570E40FF51F9081F9013297E295F295F07F2F
S1130580FE27E07FFE27E35DFE4FE40FF51F808129
S1130590892BF9013397E295F295F07FFE27E07FEE
S11305A0FE27E35DFE4FE40FF51F9081892B89F44C
S11305B02F5F3F4F02C020E030E0283031050CF4BB
S11305C0B7CF415051095523B4F781E0089580E035
S11305D0089580E008954FE050E02FC0F901EE0F38
S11305E0FF1FCF01880F991F880F991F880F991F2C
S11305F0E80FF91FEF54FE4FE40FF51F80818823A5
S113060091F021153105E9F0F9013197E295F29560
S1130610F07FFE27E07FFE27E35DFE4FE40FF51F2A
S11306208081811110C02F5F3F4F02C020E030E075
S1130630283031059CF2415051095523BCF781E023
S1130640089580E0089580E00895CF930E94EB021E
S1130650C82F81112FC040C0FA013196EE0FFF1F41
S1130660CF01880F991F880F991F880F991FE80FD2
S1130670F91FEF54FE4FE20FF31F6081FA01EE0FF2
S1130680FF1FCF01880F991F880F991F880F991F8B
S1130690E80FF91FEF54FE4FE20FF31F60832F5F43
S11306A03F4F02C020E030E020313105ACF24F5F13
S11306B05F4F02C040E050E0473051059CF380E0BA
S11306C090E005C0FC01E15DFD4F10820196803190
S11306D09105C4F30E9460018C2FCF9108954FE0DF
S11306E050E02FC0F901EE0FFF1FCF01880F991FB3
S11306F0880F991F880F991FE80FF91FEF54FE4FB9
S1130700E40FF51F8081882391F027303105E9F04B
S1130710F9013196E295F295F07FFE27E07FFE27FE
S1130720E35DFE4FE40FF51F8081811110C02F5F40
S11307303F4F02C020E030E0283031059CF24150A8
S113074051095523BCF781E0089580E0089580E0C5
S11307500895CF930E946F03C82F81112FC040C00A
S1130760FA013197EE0FFF1FCF01880F991F880FF1
S1130770991F880F991FE80FF91FEF54FE4FE20FDE
S1130780F31F6081FA01EE0FFF1FCF01880F991F3D
S1130790880F991F880F991FE80FF91FEF54FE4F18
S11307A0E20FF31F60832F5F3F4F02C020E030E071
S11307B020313105ACF24150510902C047E050E00C
S11307C0141615069CF380E090E005C0FC01EF547C
S11307D0FE4F1082019680319105C4F30E9460019E
S11307E08C2FCF9108954FE050E04CC0F901EE0FEB
S11307F0FF1FCF01880F991F880F991F880F991F1A
S1130800E80FF91FEF54FE4FE40FF51F8081882392
S113081071F1C90105970397C8F1F9013196E29581
S1130820F295F07FFE27E07FFE27E35DFE4FE40FA5
S1130830F51F9081F9013296E295F295F07FFE273B
S1130840E07FFE27E35DFE4FE40FF51F8081892BD7
S1130850F9013396E295F295F07FFE27E07FFE27BB
S1130860E35DFE4FE40FF51F9081892B89F42F5F20
S11308703F4F02C020E030E0283031050CF4B6CF01
S1130880415051095523B4F781E0089580E008955B
S113089080E008954FE050E03DC0F901EE0FFF1FE6
S11308A0CF01880F991F880F991F880F991FE80F90
S11308B0F91FEF54FE4FE40FF51F8081882301F1E7
S11308C0C9010697029750F1F9013196E295F29524
S11308D0F07FFE27E07FFE27E35DFE4FE40FF51F68
S11308E09081F9013296E295F295F07FFE27E07F40
S11308F0FE27E35DFE4FE40FF51F8081892B81F411
S11309002F5F3F4F02C020E030E0283031052CF249
S1130910415051095523BCF781E0089580E00895C2
S113092080E008950F931F93CF93DF93082F162F22
S113093085B18B7F85B9C1E0D0E007C0802F0E94CC
S1130940AA00812F0E94AA002196C730D105B4F3D2
S113095085B1846085B9DF91CF911F910F9108957E
S1130960609114018AE00E94920460E080E00E9499
S113097092040895FF920F931F93CF93DF93182F40
S1130980F62E042F85B18B7F85B9C3E0D0E040C03B
S11309901230A1F480E00E94AA0080E00E94AA0024
S11309A081E08F0D0E94AA00802F0E94AA0080E09F
S11309B00E94AA0080E00E94AA0029C01130A1F47C
S11309C080E00E94AA0080E00E94AA0080E00E94C9
S11309D0AA0080E00E94AA0081E08F0D0E94AA0074
S11309E0802F0E94AA0013C081E08F0D0E94AA00EC
S11309F0802F0E94AA0080E00E94AA0080E00E944A
S1130A00AA0080E00E94AA0080E00E94AA00219728
S1130A101C161D060CF4BCCF85B1846085B9DF912A
S1130A20CF911F910F91FF90089520E43FE140E0A2
S1130A3050E00E947312E1E8F0E080818A608083D4
S1130A40BB27A52F942F832F8093890020938800A0
S1130A50EFE6F0E08081826080830895F89421E0DD
S1130A6009C06091430270914402809145029091C3
S1130A70460220E02111F5CF789408950F931F9337
S1130A800E942E0500912101109122012091230141
S1130A9030912401601771078207930718F480E0EE
S1130AA090E039C039B131703093130129B12695E2
S1130AB021702093120199B192FB992790F9909398
S1130AC0110189B183FB882780F98093100140913B
S1130AD00F01341718F441E040932C0140910E01AA
S1130AE0241718F441E040932B0140910D01941711
S1130AF018F441E040932A0140910C01841718F442
S1130B0041E04093290130930F0120930E0190930B
S1130B100D0180930C011F910F910895CF92DF92E4
S1130B20EF92FF920F931F93CF93DF934091410273
S1130B30433009F483C667E070E01DC0FB01EE0F8B
S1130B40FF1FCF01880F991F880F991F880F991FC6
S1130B50E80FF91FEF54FE4FE20FF31F808181115C
S1130B608B012F5F3F4F02C020E030E02031310580
S1130B702CF3615071097723BCF76FE070E01DC05E
S1130B80F901EE0FFF1FCF01880F991F880F991FDE
S1130B90880F991FE80FF91FEF54FE4FE60FF71F58
S1130BA080818111EB012F5F3F4F02C020E030E0D4
S1130BB0283031052CF3615071097723BCF74111BA
S1130BC0F0C080914202811193C00E94EB02811116
S1130BD00DC00E94F303882309F430C60E94A903C0
S1130BE0882309F42BC60F5F1F4F26C00E946F0392
S1130BF0811112C00E949502882309F41FC60E9425
S1130C002503882309F41AC60E942503882309F4BE
S1130C1015C60250110910C00E944A0481110CC06B
S1130C200E944E02882309F409C60E9425038823E2
S1130C3009F404C6015011099801220F331FC90198
S1130C40880F991F880F991F880F991F820F931F70
S1130C508F549E4FFC01EC0FFD1F1082FE01329653
S1130C60E80FF91F10829E012D5F3F4FFC01E20F38
S1130C70F31F1082F8013197EE0FFF1FCF01880F89
S1130C80991F880F991F880F991FE80FF91FEF54B8
S1130C90FE4F22503109E20FF31F41E04083F80177
S1130CA03196EE0FFF1FCF01880F991F880F991FF0
S1130CB0880F991FE80FF91FEF54FE4FE20FF31F3F
S1130CC04083C8010296BC01660F771FCB01880FD1
S1130CD0991F880F991F880F991F860F971F8F548C
S1130CE09E4FFC01E20FF31F40834093420259C020
S1130CF0F801EE0FFF1FCF01880F991F880F991F6E
S1130D00880F991FE80FF91FEF54FE4FEC0FFD1FDA
S1130D101082F8013296EE0FFF1FCF01880F991F42
S1130D20880F991F880F991FE80FF91FEF54FE4F82
S1130D30EC0FFD1F1082F8013396EE0FFF1FCF0159
S1130D40880F991F880F991F880F991FE80FF91FA3
S1130D50EF54FE4FEC0FFD1F1082C80101969C0159
S1130D60220F331FC901880F991F880F991F880FFD
S1130D70991F820F931F8F549E4FFE013197E80FE6
S1130D80F91F41E04083FE013196E80FF91F4083CB
S1130D909E012E5F3F4FFC01E20FF31F4083109230
S1130DA0420278018FEFE81AF80A6E019FEFC91A20
S1130DB0D90A80914102813009F04AC180914202EE
S1130DC0811148C09801220F331FC901880F991F50
S1130DD0880F991F880F991F820F931F8F549E4F5E
S1130DE0FC01EC0FFD1F1082FC01EC0DFD1D1082B7
S1130DF0C8010296880F991F9C01220F331F220FEE
S1130E00331F220F331F820F931F8F549E4FFC01F9
S1130E10EC0DFD1D1082A701440F551F9A01220FEE
S1130E20331F220F331F220F331F240F351F2F545C
S1130E303E4FF901EC0FFD1F41E04083FC01EC0F34
S1130E40FD1F40832296F901EC0FFD1F4083409360
S1130E504202FEC0813009F058C00E94EB028111A9
S1130E6009C00E94A903882309F4E8C4780182E038
S1130E70E80EF11CA701415051099A01220F331FBA
S1130E80C901880F991F880F991F880F991F820F16
S1130E90931F8F549E4FFC01EC0FFD1F1082B7016E
S1130EA0660F771F9B01220F331F220F331F220F60
S1130EB0331F260F371F2F543E4FF901EC0FFD1F30
S1130EC010822296FC01EC0FFD1F1082F70132976D
S1130ED0EE0FFF1FCF01880F991F880F991F880FEE
S1130EE0991FE80FF91FEF54FE4FEC0DFD1D81E033
S1130EF08083F901EC0DFD1D8083C20FD31F88830D
S1130F0082E0809342027A01A3C0823009F04CC08F
S1130F109801220F331FC901880F991F880F991F49
S1130F20880F991F820F931F8F549E4FFC01EC0F63
S1130F30FD1F108298012E5F3F4FA901440F551FDA
S1130F409A01220F331F220F331F220F331F240F46
S1130F50351F2F543E4FF901EC0FFD1F1082F9018C
S1130F60EC0DFD1D1082FE013197A701440F551FA2
S1130F709A01220F331F220F331F220F331F240F16
S1130F80351F2F543E4FE20FF31F41E04083F90118
S1130F90EC0DFD1D4083FC01EC0DFD1D408383E041
S1130FA0809342026E0154C00E946F03811105C0F8
S1130FB00E942503811102C041C487019801220FB8
S1130FC0331FC901880F991F880F991F880F991F14
S1130FD0820F931F8F549E4FFC01EC0FFD1F108254
S1130FE09E012E5F3F4FFC01E20FF31F1082C801E8
S1130FF00197AC01440F551FCA01880F991F880F30
S1131000991F880F991F840F951F8F549E4FFC01C1
S1131010E20FF31F1082C80FD91F21E02883FC01BF
S1131020EC0DFD1D2083F8013196EE0FFF1FCF015B
S1131030880F991F880F991F880F991FE80FF91FB0
S1131040EF54FE4FEC0DFD1D2083109242027801F7
S113105080914102823009F05BC18091420281118A
S11310604DC0C7010196880F991F9C01220F331FA1
S1131070220F331F220F331F820F931F8F549E4F53
S1131080A60141505109FC01E40FF51F1082F7013C
S11310903197EE0FFF1F9F01220F331F220F331FC3
S11310A0220F331FE20FF31FEF54FE4FEC0DFD1D13
S11310B01082FC01EC0DFD1D1082B701660F771F35
S11310C09B01220F331F220F331F220F331F260FC2
S11310D0371F2F543E4FF901E40FF51F51E05083A1
S11310E0B6016F5F7F4FFC01E60FF71F5083F901D4
S11310F0E60FF71F5083509342020AC1813009F072
S11311005DC00E94EB02811108C00E94A9038823DC
S113111009F494C39FEFE91AF90A970121503109A0
S1131120A901440F551FCA01880F991F880F991FE1
S1131130880F991F840F951F8F549E4FF601319786
S1131140E80FF91F1082B701660F771FAB01440F38
S1131150551F440F551F440F551F460F571F4F541B
S11311605E4FB6016F5F7F4FFA01E60FF71F1082E3
S1131170FC01E60FF71F1082C7010297FC01EE0F76
S1131180FF1FCF01880F991F880F991F880F991F80
S11311908E0F9F1F8F549E4FDC01AC0DBD1DE1E0EF
S11311A0EC93DA01AC0DBD1DEC93DC01A60FB71F67
S11311B0EC9382E0809342027901AAC0823009F064
S11311C04EC0A60141505109C7010197880F991FCC
S11311D09C01220F331F220F331F220F331F820F54
S11311E0931F9C012F543E4FF901E40FF51F108209
S11311F0F7013196EE0FFF1FCF01880F991F880F5B
S1131200991F880F991FE80FF91FEF54FE4FE40F41
S1131210F51F1082F901EC0DFD1D1082F6013297C5
S1131220B701660F771FCB01880F991F880F991F8D
S1131230880F991F860F971F8F549E4FDC01AE0FA6
S1131240BF1F61E06C93DC01AC0DBD1D6C93E20F1C
S1131250F31F608383E0809342026A0159C00E94B5
S11312606F03811108C00E942503882309F4E6C294
S113127081E0E81AF1089701220F331FC901880F92
S1131280991F880F991F880F991F820F931F8F54DE
S11312909E4FF6013197DC01AE0FBF1F1C929601E1
S11312A02F5F3F4FDC01A20FB31F1C92C7010197B0
S11312B0880F991F9C01220F331F220F331F220F07
S11312C0331F820F931F9C012F543E4FD901AE0F41
S11312D0BF1F1C92C7010196AC01440F551FCA01E0
S11312E0880F991F880F991F880F991F840F951FC6
S11312F08F549E4FE80FF91F41E04083F901EC0D34
S1131300FD1D4083FC01EC0DFD1D40831092420243
S113131080914102843009F07AC0809142028111A7
S113132035C0C7010196880F991F9C01220F331FF6
S1131330220F331F220F331F820F931F8F549E4F90
S1131340F6013197E80FF91F1082F7013197EE0F7C
S1131350FF1F9F01220F331F220F331F220F331F42
S1131360E20FF31FEF54FE4FEC0DFD1D1082FC0144
S1131370EC0DFD1D21E02083A6014F5F5F4FFC01B2
S1131380E40FF51F20832093420241C00E94EB0228
S1131390811108C00E94A903882309F44FC29FEF5A
S11313A0E91AF90A9701220F331FC901880F991FFF
S11313B0880F991F880F991F280F391F2F543E4FEC
S11313C0F901EC0DFD1D1082F6013196E20FF31FB9
S11313D01082F7013297EE0FFF1FCF01880F991F7C
S11313E0880F991F880F991FE80FF91FEF54FE4FBC
S11313F0EC0DFD1D41E04083C6010197F901E80FA2
S1131400F91F408310924202C70101977C01809129
S11314104102853009F02DC180914202811142C000
S11314209701220F331FC901880F991F880F991F35
S1131430880F991F280F391F2F543E4FD60111973B
S1131440A20FB31FF7013197EE0FFF1FCF01880FD3
S1131450991F880F991F880F991FE80FF91FEF54E0
S1131460FE4FEC0DFD1D1082F7013196EE0FFF1FAC
S1131470CF01880F991F880F991F880F991FE80FB4
S1131480F91FEF54FE4FEC0DFD1D81E08C9380831A
S1131490A6014F5F5F4FF901E40FF51F808380932E
S11314A04202E7C0813009F051C00E94EB02811171
S11314B008C00E94A903882309F4C0C19FEFE91A58
S11314C0F90A970121503109A901440F551FCA0196
S11314D0880F991F880F991F880F991F840F951FD4
S11314E0AC014F545E4FF6013197E40FF51F1082A3
S11314F0F701EE0FFF1FCF01880F991F880F991F67
S1131500880F991FE80FF91FEF54FE4FEC0DFD1DD6
S1131510E6012196C40FD51FD7011297AA0FBB1F4E
S1131520CD01880F991F880F991F880F991FA80F45
S1131530B91FAF54BE4FAC0DBD1D81E08C938083A9
S1131540888382E080934202790193C0823009F05B
S113155044C0960121503109F7013197EE0FFF1F66
S1131560CF01880F991F880F991F880F991FE80FC3
S1131570F91FEF54FE4FE20FF31FD7011196AA0F84
S1131580BB1FCD01880F991F880F991F880F991FC2
S1131590A80FB91FAF54BE4FA20FB31F1C92A701CF
S11315A0440F551FCA01880F991F880F991F880F70
S11315B0991F840F951F8F549E4FEC01CC0DDD1D98
S11315C0D6011297A80FB91F91E09C93908398833A
S11315D083E08093420269014CC00E946F03811131
S11315E008C00E942503882309F428C181E0E81A71
S11315F0F1089701220F331FC901880F991F880F23
S1131600991F880F991F280F391F2F543E4FD60159
S11316101197A20FB31FF7013197EE0FFF1FCF01F0
S1131620880F991F880F991F880F991FE80FF91FBA
S1131630EF54FE4FEC0DFD1DC6010196E901C80FE4
S1131640D91F188221E02C932083F7013196EE0FE5
S1131650FF1FCF01880F991F880F991F880F991FAB
S1131660E80FF91FEF54FE4FEC0DFD1D208310927F
S1131670420280914102863009F0DAC08091420230
S1131680811146C0F7013197960121503109EE0FBF
S1131690FF1FCF01880F991F880F991F880F991F6B
S11316A0E80FF91FEF54FE4FE20FF31F1082B7014A
S11316B0660F771FCB01880F991F880F991F880F1A
S11316C0991F680F791F6F547E4FFB01E20FF31FC0
S11316D01082C7010196AC01440F551FCA01880F3F
S11316E0991F880F991F880F991F840F951F8F5476
S11316F09E4FFC01E20FF31F81E080839FEFC91A24
S1131700D90AFB01EC0DFD1D80838093420290C039
S11317100E94EB02811108C00E94A903882309F4E6
S11317208DC08FEFE81AF80AA701415051099601BC
S113173021503109F701EE0FFF1FCF01880F991FC8
S1131740880F991F880F991FE80FF91FEF54FE4F58
S1131750E20FF31F1082F6013196CA01880F991F18
S1131760AC01440F551F440F551F440F551F840FE0
S1131770951FAC014F545E4FE40FF51F1082C70153
S11317800297880F991FFC01EE0FFF1FEE0FFF1F3A
S1131790EE0FFF1FE80FF91FEF54FE4FE20FF31F88
S11317A081E08083FA01E20FF31F808310924202EA
S11317B03FC0A901440F551FCA01880F991F880F04
S11317C0991F880F991F840F951F8F549E4FFB01FB
S11317D03196E80FF91F4081FC01E60FF71F4083A3
S11317E02F5F3F4F02C020E030E0283031050CF37A
S11317F06F5F7F4F02C060E070E0623171059CF35F
S11318000E942E050091060110910701012E000C83
S1131810220B330BDC01CB01800F911FA21FB31FDE
S11318208093250190932601A0932701B09328016A
S11318300E9496018823F9F20E946001DF91CF9102
S11318401F910F91FF90EF90DF90CF900895CF926A
S1131850DF92EF92FF920F931F93CF93DF93CDB755
S1131860DEB7C058D1090FB6F894DEBF0FBECDBFA6
S113187020E030E025C0FC01E295F295F07FFE27E0
S1131880E07FFE27E45BFD4FE20FF31F4081F90187
S1131890EE0FFF1FEE0FFF1FEE0FFF1F61E070E062
S11318A06C0F7D1FE60FF71FE80FF91F40830196A9
S11318B002C080E090E088309105ECF22F5F3F4F4A
S11318C028303105B4F328E030E026C0FC01E2956D
S11318D0F295F07FFE27E07FFE27E45BFD4FE20FE9
S11318E0F31F4081F9013897EE0FFF1FEE0FFF1F22
S11318F0EE0FFF1F61E470E06C0F7D1FE60FF71F12
S1131900E80FF91F4083019602C080E090E0883020
S11319109105E4F22F5F3F4F20313105B4F320E00D
S113192030E009C0019602C080E090E08830910563
S1131930CCF32F5F3F4F28303105B4F328E030E07B
S113194009C0019602C080E090E088309105CCF394
S11319502F5F3F4F20313105B4F300E010E097C012
S1131960FF0CFC01EE0FFF1FEE0FFF1FEE0FFF1F1A
S113197021E030E02C0F3D1FE20FF31FE00FF11FB9
S11319802081222319F03F2D3160F32E019603C0EC
S113199080E090E0F12C8830910514F340E080E081
S11319A090E014C0440FFC01EE0FFF1FEE0FFF1F69
S11319B0EE0FFF1F61E470E06C0F7D1FE60FF71F51
S11319C0E00FF11F208121114160019688309105BB
S11319D04CF380912001882309F44EC00E942E0507
S11319E0C0904802D0904902E0904A02F0904B0225
S11319F0DC01CB018C199D09AE09BF098093AD01AF
S1131A009093AE01A093AF01B093B0014FE0602F6B
S1131A1082E00E94BA044FE0602F83E00E94BA047F
S1131A208091AD019091AE01A091AF01B091B00150
S1131A30803D9740A105B10550F480911E0190911D
S1131A401F01019690931F0180931E011EC040E068
S1131A50602F82E00E94BA0440E0602F83E00E947D
S1131A60BA0440E0602F82E00E94BA0440E0602F94
S1131A7083E00E94BA0409C0602F81E00E94BA0486
S1131A804F2D602F82E00E94BA040F5F1F4F083071
S1131A9011050CF47DCF80912001811116C020E046
S1131AA030E010C0019602C080E090E088309105DB
S1131AB0CCF380E090E001C0019688309105E4F316
S1131AC02F5F3F4F283031057CF3C058DF4F0FB6EE
S1131AD0F894DEBF0FBECDBFDF91CF911F910F9160
S1131AE0FF90EF90DF90CF9008951F920F920FB662
S1131AF00F9211242F933F934F935F936F937F9390
S1131B008F939F93AF93BF93EF93FF930E94270C00
S1131B10FF91EF91BF91AF919F918F917F916F91C1
S1131B205F914F913F912F910F900FBE0F901F9097
S1131B3018951F920F920FB60F9211248F939F93B3
S1131B40AF93BF938091430290914402A0914502C8
S1131B50B09146020196A11DB11D8093430290935A
S1131B604402A0934502B0934602BF91AF919F9166
S1131B708F910F900FBE0F901F9018951092B20086
S1131B80E0E7F0E08081826080830895CF93DF9363
S1131B9085B18B7F85B9C1E0D0E00DC08CE00E9497
S1131BA0AA0080E00E94AA008CE00E94AA0080E0C3
S1131BB00E94AA002196C430D10584F385B18460C3
S1131BC085B90E94BE0D85B18B7F85B9C1E0D0E097
S1131BD00DC080E00E94AA0080E00E94AA0080E07C
S1131BE00E94AA0080E00E94AA002196C430D10578
S1131BF084F385B1846085B9DF91CF9108951F92F4
S1131C000F920FB60F9211242F933F934F935F932C
S1131C106F937F938F939F93AF93BF93EF93FF93B0
S1131C208091160190911701019719F481E00E94A7
S1131C30C60D80E00E94C60DFF91EF91BF91AF9158
S1131C409F918F917F916F915F914F913F912F91D0
S1131C500F900FBE0F901F901895ECE7F0E0908165
S1131C60907F8F70892B8083EAE7F0E08081806425
S1131C70808380917A0086FDFCCF809178009091DA
S1131C8079000895ECE7F0E0808180648083EAE7DE
S1131C90F0E08081876880830895EF92FF920F932C
S1131CA01F93CF93DF938C01C0E0D0E08FC10A3043
S1131CB0110528F185B18B7F85B9FE01E056FF4FF0
S1131CC064918C2F0E94AF00FE01E855FF4F649190
S1131CD08C2F0E94AF00F8013A97EE0FFF1FEE0F12
S1131CE0FF1FEE0FFF1FEC0FFD1FE056FF4F649127
S1131CF08C2F0E94AF0085B1846085B966C1043120
S1131D00110528F185B18B7F85B9FE01E056FF4F9F
S1131D1064918C2F0E94AF00FE01E055FF4F649147
S1131D208C2F0E94AF00F8017497EE0FFF1FEE0F87
S1131D30FF1FEE0FFF1FEC0FFD1FE056FF4F6491D6
S1131D408C2F0E94AF0085B1846085B93EC10E31ED
S1131D50110528F185B18B7F85B9FE01E056FF4F4F
S1131D6064918C2F0E94AF00FE01E854FF4F6491F0
S1131D708C2F0E94AF00F8017E97EE0FFF1FEE0F2D
S1131D80FF1FEE0FFF1FEC0FFD1FE056FF4F649186
S1131D908C2F0E94AF0085B1846085B916C10832CA
S1131DA0110528F185B18B7F85B9FE01E056FF4FFF
S1131DB064918C2F0E94AF00FE01E054FF4F6491A8
S1131DC08C2F0E94AF00F801B897EE0FFF1FEE0FA3
S1131DD0FF1FEE0FFF1FEC0FFD1FE056FF4F649136
S1131DE08C2F0E94AF0085B1846085B9EEC00233A8
S1131DF0110528F185B18B7F85B9FE01E056FF4FAF
S1131E0064918C2F0E94AF00FE01E853FF4F649150
S1131E108C2F0E94AF00F801F297EE0FFF1FEE0F18
S1131E20FF1FEE0FFF1FEC0FFD1FE056FF4F6491E5
S1131E308C2F0E94AF0085B1846085B9C6C00C3375
S1131E40110528F185B18B7F85B9FE01E056FF4F5E
S1131E5064918C2F0E94AF00FE01E053FF4F649108
S1131E608C2F0E94AF00F801FC97EE0FFF1FEE0FBE
S1131E70FF1FEE0FFF1FEC0FFD1FE056FF4F649195
S1131E808C2F0E94AF0085B1846085B99EC0063452
S1131E90110530F185B18B7F85B9FE01E056FF4F06
S1131EA064918C2F0E94AF00FE01E852FF4F6491B1
S1131EB08C2F0E94AF00F801E654F109EE0FFF1FCA
S1131EC0EE0FFF1FEE0FFF1FEC0FFD1FE056FF4F3D
S1131ED064918C2F0E94AF0085B1846085B975C070
S1131EE00035110530F185B18B7F85B9FE01E056CF
S1131EF0FF4F64918C2F0E94AF00FE01E052FF4F10
S1131F0064918C2F0E94AF00F801E055F109EE0FA7
S1131F10FF1FEE0FFF1FEE0FFF1FEC0FFD1FE0561C
S1131F20FF4F64918C2F0E94AF0085B1846085B906
S1131F304CC00A35110530F185B18B7F85B9FE019E
S1131F40E056FF4F64918C2F0E94AF00FE01E851D0
S1131F50FF4F64918C2F0E94AF00F801EA55F109FC
S1131F60EE0FFF1FEE0FFF1FEE0FFF1FEC0FFD1F05
S1131F70E056FF4F64918C2F0E94AF0085B18460BE
S1131F8085B923C085B18B7F85B9CE0180569F4F1B
S1131F907C01FC0164918C2F0E94AF00F7016491D5
S1131FA08C2F0E94AF00F801EE0FFF1FEE0FFF1FF2
S1131FB0EE0FFF1FEC0FFD1FE056FF4F64918C2FB7
S1131FC00E94AF0085B1846085B92196C830D105DF
S1131FD00CF46DCEDF91CF911F910F91FF90EF9094
S1131FE0089581E0809320010E942E0560934802A9
S1131FF07093490280934A0290934B020E94FF001F
S113200080911801909119010E944D0E0E943E0585
S113201090912C0180912B01892B90912A01892B7D
S113202090912901892B91F30E94FF0010921901CC
S113203010921801109220012FE030E015C0FC012D
S1132040E295F295F07FFE27E07FFE27E35DFE4FE9
S1132050E20FF31F1082019602C080E090E0883006
S113206091056CF3215031093323BCF710922C01F4
S113207010922B0110922A011092290181E090E024
S113208090930501809304010895CF93DF93CFE0EB
S1132090D0E072C0FC01E295F295F07FFE27E07F6C
S11320A0FE27E35DFE4FEC0FFD1F2081222311F07C
S11320B04F5F5F4F019604C040E050E080E090E045
S11320C0883091053CF34830510509F054C00EC0E6
S11320D0FC01E295F295F07FFE27E07FFE27E35DA9
S11320E0FE4FEC0FFD1F1082019602C080E090E0CD
S11320F0883091056CF30E946001AE011CC0C901D7
S113210082959295907F9827807F9827835D9E4F34
S1132110FA013197E80FF91F6081FC01E40FF51F04
S113212060832F5F3F4F02C020E030E0283031054C
S113213034F34150510914161506B4F380E090E0CD
S11321400BC0FC01E295F295F07FFE27E07FFE27AD
S1132150E35DFE4F108201968830910594F30E944E
S11321606001219680911801909119010196909334
S11321701901809318012197DD230CF09DCFC0E055
S1132180D0E00EC0FE01E295F295F07FFE27E07FDD
S1132190FE27E35DFE4F808181110E94F10F21969D
S11321A0C830D1057CF3DF91CF910895CF93DF93AD
S11321B00E94451080910401909105010197B9F4A2
S11321C080911A0190911B010E94FA120E94F5124B
S11321D0C6E0D0E0BE010E945F12809341020E94DB
S11321E0F512BE010E945F128093470212C08091D3
S11321F01A0190911B010E94FA1280914702809368
S113220041020E94F51266E070E00E945F12809322
S1132210470280914102811107C0E1EBF1E091E0B6
S113222096AB97AB90AF91AF813041F4E1EBF1E025
S113223091E094A395A397AB9093FA01823049F46B
S1132240E1EBF1E091E09093F90195A397AB9093C2
S1132250FA01833049F4E1EBF1E091E096AB97ABFE
S11322609093F9019093FA01843049F491E09093AA
S1132270F90190930B029093E8019093FA01853051
S113228049F491E09093F9019093E8019093FA0155
S113229090930C02863049F481E08093E7018093A7
S11322A0F9018093FA0180930C02109242020E9479
S11322B0F00180910401909105010196909305012C
S11322C080930401DF91CF9108950E94130281113C
S11322D025C040E050E079C0A901440F551FCA0150
S11322E0880F991F880F991F880F991F840F951FB6
S11322F08F549E4FFB013197E80FF91F4081FC0179
S1132300E60FF71F40832F5F3F4F02C020E030E00D
S1132310283031050CF36150710902C06FE070E0A0
S11323207723A4F720E030E011C0F901EE0FFF1F7E
S1132330CF01880F991F880F991F880F991FE80FE5
S1132340F91FEF54FE4F10822F5F3F4F27303105A6
S113235064F340C0FA01EE0FFF1FCF01880F991FED
S1132360880F991F880F991FE80FF91FEF54FE4F2C
S1132370E20FF31F80818823F1F0FA01E295F295D0
S1132380F07FFE27E07FFE27E35DFE4FE20FF31FA1
S113239081E08083FA01EE0FFF1FCF01880F991FA0
S11323A0880F991F880F991FE80FF91FEF54FE4FEC
S11323B0E20FF31F10822F5F3F4F02C020E030E096
S11323C0203131053CF24F5F5F4F48305105B4F383
S11323D00E94D6100E94600108950E9497000E94F6
S11323E0B8000E94FF00609108017091090180917A
S11323F00A0190910B010E9415050E941A010E9486
S1132400420E80E00E942D0E0E94FA120E94B00437
S11324100E94F0010E94D6100E9460010E94270CC5
S11324200E942E050091250110912601209127017B
S1132430309128010617170728073907D0F40E949E
S11324402E050091060110910701012E000C220BAC
S1132450330BDC01CB01800F911FA21FB31F8093AC
S1132460250190932601A0932701B09328010E948F
S113247065110E943E050E94270180912C0188234A
S113248021F00E948E0510922C0180912B0188234B
S113249021F00E94A90310922B0180912A01882324
S11324A021F00E94250310922A018091290188239A
S11324B009F4B4CF0E94651110922901AFCF97FBA4
S11324C0072E16F4009407D077FD09D00E949512C8
S11324D007FC05D03EF4909581959F4F0895709523
S11324E061957F4F0895A1E21A2EAA1BBB1BFD0123
S11324F00DC0AA1FBB1FEE1FFF1FA217B307E407DF
S1132500F50720F0A21BB30BE40BF50B661F771F36
S1132510881F991F1A9469F7609570958095909516
S11325209B01AC01BD01CF010895AA1BBB1B51E166
S113253007C0AA1FBB1FA617B70710F0A61BB70B2F
S1132540881F991F5A95A9F780959095BC01CD01D4
S113255008958F929F92AF92BF92CF92DF92EF92A3
S1132560FF92CF93DF93EC01688179818A819B810B
S1132570611571058105910521F464E279ED8BE51E
S113258097E02DE133EF41E050E00E94051349014B
S11325905A019B01AC01A7EAB1E40E9424136B0128
S11325A07C01ACEEB4EFA50194010E943213DC016E
S11325B0CB018C0D9D1DAE1DBF1DB7FF03C0019740
S11325C0A109B04888839983AA83BB839F77DF914D
S11325D0CF91FF90EF90DF90CF90BF90AF909F90FE
S11325E08F9008950E94A912089580E091E00E94BE
S11325F0A9120895A0E0B0E0809300019093010136
S1132600A0930201B09303010895052E97FB1EF4D5
S113261000940E941C1357FD07D00E94731207FCFC
S113262003D04EF40C941C1350954095309521958D
S11326303F4F4F4F5F4F08959095809570956195EA
S11326407F4F8F4F9F4F08950E943713A59F900D82
S1132650B49F900DA49F800D911D11240895B7FF80
S11326600C9424130E942413821B930B0895A29F9D
S1132670B001B39FC001A39F700D811D1124911D52
S1132680B29F700D811D1124911D0895F894FFCF00
S1132690010000000100F4010080BB000101010100
S10B26A0010101010F0001001A
S9030000FC
